{"contracts/factory.sol":{"Factory":{"abi":[{"inputs":[{"internalType":"uint256","name":"","type":"uint256"}],"name":"allContracts","outputs":[{"internalType":"address","name":"","type":"address"}],"stateMutability":"view","type":"function"},{"inputs":[],"name":"createMultisigContract","outputs":[],"stateMutability":"nonpayable","type":"function"},{"inputs":[],"name":"getAllAddressContracts","outputs":[{"internalType":"address[]","name":"","type":"address[]"}],"stateMutability":"view","type":"function"},{"inputs":[],"name":"getAllContracts","outputs":[{"internalType":"address[]","name":"","type":"address[]"}],"stateMutability":"view","type":"function"},{"inputs":[{"internalType":"address","name":"","type":"address"},{"internalType":"uint256","name":"","type":"uint256"}],"name":"ownerToContracts","outputs":[{"internalType":"address","name":"","type":"address"}],"stateMutability":"view","type":"function"}],"evm":{"bytecode":{"linkReferences":{},"object":"6080604052348015600f57600080fd5b506122428061001f6000396000f3fe608060405234801561001057600080fd5b50600436106100575760003560e01c806318d3ce961461005c5780635856fbf11461007a5780636a1972bd1461008457806373037916146100b4578063e54e26b9146100d2575b600080fd5b610064610102565b604051610071919061061d565b60405180910390f35b6100826101cc565b005b61009e600480360381019061009991906106a6565b61038a565b6040516100ab91906106f5565b60405180910390f35b6100bc6103d8565b6040516100c9919061061d565b60405180910390f35b6100ec60048036038101906100e79190610710565b6104de565b6040516100f991906106f5565b60405180910390f35b60606101186795b225c9045c6ff660c01b61051d565b61012c67f558ca8053231f4260c01b61051d565b610140674e623be595ec283c60c01b61051d565b60018054806020026020016040519081016040528092919081815260200182805480156101c257602002820191906000526020600020905b8160009054906101000a900473ffffffffffffffffffffffffffffffffffffffff1673ffffffffffffffffffffffffffffffffffffffff1681526020019060010190808311610178575b5050505050905090565b6101e067359f3c95368fe70160c01b61051d565b6101f467181d82e50a8e22ed60c01b61051d565b61020867a2d474165f255e8f60c01b61051d565b600060405161021690610520565b604051809103906000f080158015610232573d6000803e3d6000fd5b5090506102496762614f21d6be442660c01b61051d565b61025d672fe099694c5d153460c01b61051d565b6000803373ffffffffffffffffffffffffffffffffffffffff1673ffffffffffffffffffffffffffffffffffffffff168152602001908152602001600020819080600181540180825580915050600190039060005260206000200160009091909190916101000a81548173ffffffffffffffffffffffffffffffffffffffff021916908373ffffffffffffffffffffffffffffffffffffffff1602179055506103106739031a0d386882d060c01b61051d565b61032467e3f759f2e2e6a6c960c01b61051d565b6001819080600181540180825580915050600190039060005260206000200160009091909190916101000a81548173ffffffffffffffffffffffffffffffffffffffff021916908373ffffffffffffffffffffffffffffffffffffffff16021790555050565b600060205281600052604060002081815481106103a657600080fd5b906000526020600020016000915091509054906101000a900473ffffffffffffffffffffffffffffffffffffffff1681565b60606103ee67e7fb1d2ee85b1d4660c01b61051d565b6104026771af80364d3e349e60c01b61051d565b610416670266eb0792b1811760c01b61051d565b6000803373ffffffffffffffffffffffffffffffffffffffff1673ffffffffffffffffffffffffffffffffffffffff1681526020019081526020016000208054806020026020016040519081016040528092919081815260200182805480156104d457602002820191906000526020600020905b8160009054906101000a900473ffffffffffffffffffffffffffffffffffffffff1673ffffffffffffffffffffffffffffffffffffffff168152602001906001019080831161048a575b5050505050905090565b600181815481106104ee57600080fd5b906000526020600020016000915054906101000a900473ffffffffffffffffffffffffffffffffffffffff1681565b50565b611acf8061073e83390190565b600081519050919050565b600082825260208201905092915050565b6000819050602082019050919050565b600073ffffffffffffffffffffffffffffffffffffffff82169050919050565b600061058482610559565b9050919050565b61059481610579565b82525050565b60006105a6838361058b565b60208301905092915050565b6000602082019050919050565b60006105ca8261052d565b6105d48185610538565b93506105df83610549565b8060005b838110156106105781516105f7888261059a565b9750610602836105b2565b9250506001810190506105e3565b5085935050505092915050565b6000602082019050818103600083015261063781846105bf565b905092915050565b600080fd5b61064d81610579565b811461065857600080fd5b50565b60008135905061066a81610644565b92915050565b6000819050919050565b61068381610670565b811461068e57600080fd5b50565b6000813590506106a08161067a565b92915050565b600080604083850312156106bd576106bc61063f565b5b60006106cb8582860161065b565b92505060206106dc85828601610691565b9150509250929050565b6106ef81610579565b82525050565b600060208201905061070a60008301846106e6565b92915050565b6000602082840312156107265761072561063f565b5b600061073484828501610691565b9150509291505056fe60a060405260036000556100236790e9112ff569084460c01b6100e760201b60201c565b61003d67f87bb9b511da708260c01b6100e760201b60201c565b3373ffffffffffffffffffffffffffffffffffffffff1660808173ffffffffffffffffffffffffffffffffffffffff168152505061008b673bab19766d4fd52860c01b6100e760201b60201c565b60018060003373ffffffffffffffffffffffffffffffffffffffff1673ffffffffffffffffffffffffffffffffffffffff16815260200190815260200160002060006101000a81548160ff0219169083151502179055506100ea565b50565b6080516119c361010c6000396000818161023101526107f401526119c36000f3fe6080604052600436106100745760003560e01c80638da5cb5b1161004e5780638da5cb5b14610111578063ab2730161461013c578063c7f758a814610165578063e695402a146101a25761007b565b806331cb6105146100805780634e054d8d146100a95780636b3b92a2146100e65761007b565b3661007b57005b600080fd5b34801561008c57600080fd5b506100a760048036038101906100a2919061130e565b6101df565b005b3480156100b557600080fd5b506100d060048036038101906100cb9190611384565b6103b8565b6040516100dd91906113d3565b60405180910390f35b3480156100f257600080fd5b506100fb6107ec565b60405161010891906113d3565b60405180910390f35b34801561011d57600080fd5b506101266107f2565b60405161013391906113fd565b60405180910390f35b34801561014857600080fd5b50610163600480360381019061015e9190611418565b610816565b005b34801561017157600080fd5b5061018c60048036038101906101879190611418565b610e4a565b6040516101999190611612565b60405180910390f35b3480156101ae57600080fd5b506101c960048036038101906101c49190611634565b61103c565b6040516101d69190611670565b60405180910390f35b6101f3676598dbc4136c93b660c01b6110ce565b61020767c97430c30509cc8b60c01b6110ce565b61021b675bbe1063b8ea16a760c01b6110ce565b61022f67e7848ea6a7c9713260c01b6110ce565b7f000000000000000000000000000000000000000000000000000000000000000073ffffffffffffffffffffffffffffffffffffffff163373ffffffffffffffffffffffffffffffffffffffff16146102f957610296678a154c219824659b60c01b6110ce565b6102aa67e2e268f85d9d85c660c01b6110ce565b6102be67f8b7b51da141c31f60c01b6110ce565b6040517f08c379a00000000000000000000000000000000000000000000000000000000081526004016102f09061170e565b60405180910390fd5b61030d677eda88d59c8e042560c01b6110ce565b61032167d5df1b44f850104e60c01b6110ce565b61033567a8184e39a04766a560c01b6110ce565b61034967b47040f18c8ed49e60c01b6110ce565b61035d670c25ed293226c64a60c01b6110ce565b80600160008473ffffffffffffffffffffffffffffffffffffffff1673ffffffffffffffffffffffffffffffffffffffff16815260200190815260200160002060006101000a81548160ff0219169083151502179055505050565b60006103ce67f442cd782441fcb560c01b6110ce565b6103e267c38fdaf12f8f73e660c01b6110ce565b6103f6678e6c815da93ff8c960c01b6110ce565b61040a674ac26e7fab201aa160c01b6110ce565b600160003373ffffffffffffffffffffffffffffffffffffffff1673ffffffffffffffffffffffffffffffffffffffff16815260200190815260200160002060009054906101000a900460ff166104d25761046f673c822054bf08407960c01b6110ce565b61048367d047ff59c776af8360c01b6110ce565b61049767c8377c5016f65da960c01b6110ce565b6040517f08c379a00000000000000000000000000000000000000000000000000000000081526004016104c9906117a0565b60405180910390fd5b6104e667c1ad9b6840b20d1160c01b6110ce565b6104fa671a1d3ff8037c404f60c01b6110ce565b61050e678a7a3aee26196d8560c01b6110ce565b6105226718693993bccd057460c01b6110ce565b61053667ebe88332119af2a960c01b6110ce565b61054a6732fc1c561736eb9f60c01b6110ce565b6000600167ffffffffffffffff811115610567576105666117c0565b5b6040519080825280602002602001820160405280156105955781602001602082028036833780820191505090505b5090506105ac67939dff512ede058360c01b6110ce565b33816000815181106105c1576105c06117ef565b5b602002602001019073ffffffffffffffffffffffffffffffffffffffff16908173ffffffffffffffffffffffffffffffffffffffff168152505061060f67c9cc054f5cc2594e60c01b6110ce565b6040518060c001604052808573ffffffffffffffffffffffffffffffffffffffff1681526020018481526020013373ffffffffffffffffffffffffffffffffffffffff168152602001600181526020018281526020016000600181111561067957610678611512565b5b81525060026000600354815260200190815260200160002060008201518160000160006101000a81548173ffffffffffffffffffffffffffffffffffffffff021916908373ffffffffffffffffffffffffffffffffffffffff1602179055506020820151816001015560408201518160020160006101000a81548173ffffffffffffffffffffffffffffffffffffffff021916908373ffffffffffffffffffffffffffffffffffffffff16021790555060608201518160030155608082015181600401908051906020019061074f929190611158565b5060a08201518160050160006101000a81548160ff0219169083600181111561077b5761077a611512565b5b0217905550905050610797671bda463c6df2a16160c01b6110ce565b60016003546107a6919061184d565b6003819055506107c067364b786ef364561860c01b6110ce565b6107d4673619f5d0d641fb7e60c01b6110ce565b60016003546107e39190611881565b91505092915050565b60005481565b7f000000000000000000000000000000000000000000000000000000000000000081565b61082a67f342d1cfdf3a5c6f60c01b6110ce565b61083e67c38fdaf12f8f73e660c01b6110ce565b610852678e6c815da93ff8c960c01b6110ce565b610866674ac26e7fab201aa160c01b6110ce565b600160003373ffffffffffffffffffffffffffffffffffffffff1673ffffffffffffffffffffffffffffffffffffffff16815260200190815260200160002060009054906101000a900460ff1661092e576108cb673c822054bf08407960c01b6110ce565b6108df67d047ff59c776af8360c01b6110ce565b6108f367c8377c5016f65da960c01b6110ce565b6040517f08c379a0000000000000000000000000000000000000000000000000000000008152600401610925906117a0565b60405180910390fd5b61094267c1ad9b6840b20d1160c01b6110ce565b610956671a1d3ff8037c404f60c01b6110ce565b61096a67d70b8724d660f3c960c01b6110ce565b61097e6781fee0307ad189e860c01b6110ce565b61099267e7432814378b7da860c01b6110ce565b6109a667f27d0551e600876e60c01b6110ce565b6001808111156109b9576109b8611512565b5b6002600083815260200190815260200160002060050160009054906101000a900460ff1660018111156109ef576109ee611512565b5b03610a6b57610a08674ae0bcdce2988d0d60c01b6110ce565b610a1c67b3e5f367c28dba6360c01b6110ce565b610a30670162089eab83fae460c01b6110ce565b6040517f08c379a0000000000000000000000000000000000000000000000000000000008152600401610a6290611901565b60405180910390fd5b610a7f679bc65c9dde73035b60c01b6110ce565b610a9367fc7697a31c89536360c01b6110ce565b610aa7675be84f3fadce952060c01b6110ce565b60005b6002600083815260200190815260200160002060040180549050811015610c1057610adf6760d4438f6d56bd5c60c01b6110ce565b610af367d80fa4683917f35a60c01b6110ce565b3373ffffffffffffffffffffffffffffffffffffffff16600260008481526020019081526020016000206004018281548110610b3257610b316117ef565b5b9060005260206000200160009054906101000a900473ffffffffffffffffffffffffffffffffffffffff1673ffffffffffffffffffffffffffffffffffffffff1603610bef57610b8c679b71f2a4b0f1274460c01b6110ce565b610ba067f1546fd8d596b63f60c01b6110ce565b610bb46742c26b51fdf757ae60c01b6110ce565b6040517f08c379a0000000000000000000000000000000000000000000000000000000008152600401610be69061196d565b60405180910390fd5b610c0367add848f8496850c060c01b6110ce565b8080600101915050610aaa565b50610c2567a3226106218d9deb60c01b6110ce565b60016002600083815260200190815260200160002060030154610c48919061184d565b6002600083815260200190815260200160002060030181905550610c76676fe92b78260c570660c01b6110ce565b610c8a67649754d0f3d98afe60c01b6110ce565b60026000828152602001908152602001600020600401339080600181540180825580915050600190039060005260206000200160009091909190916101000a81548173ffffffffffffffffffffffffffffffffffffffff021916908373ffffffffffffffffffffffffffffffffffffffff160217905550610d1567bc4b1cba48e1491860c01b6110ce565b610d29672eb5f29f6426ca5060c01b6110ce565b600054600260008381526020019081526020016000206003015410610e3257610d5c675e109c02fcc7404e60c01b6110ce565b610d7067db2779b91a0e9fa360c01b6110ce565b610d8467b7950dfcd232966560c01b6110ce565b610dda6002600083815260200190815260200160002060000160009054906101000a900473ffffffffffffffffffffffffffffffffffffffff1660026000848152602001908152602001600020600101546110d1565b610dee671ec830dcb1fb46e160c01b6110ce565b60016002600083815260200190815260200160002060050160006101000a81548160ff02191690836001811115610e2857610e27611512565b5b0217905550610e47565b610e4667bb5e84120eca245260c01b6110ce565b5b50565b610e526111e2565b610e666726c5132debcffb6060c01b6110ce565b610e7a6793617b067525740e60c01b6110ce565b610e8e6788fa93633906499060c01b6110ce565b600260008381526020019081526020016000206040518060c00160405290816000820160009054906101000a900473ffffffffffffffffffffffffffffffffffffffff1673ffffffffffffffffffffffffffffffffffffffff1673ffffffffffffffffffffffffffffffffffffffff168152602001600182015481526020016002820160009054906101000a900473ffffffffffffffffffffffffffffffffffffffff1673ffffffffffffffffffffffffffffffffffffffff1673ffffffffffffffffffffffffffffffffffffffff1681526020016003820154815260200160048201805480602002602001604051908101604052809291908181526020018280548015610ff157602002820191906000526020600020905b8160009054906101000a900473ffffffffffffffffffffffffffffffffffffffff1673ffffffffffffffffffffffffffffffffffffffff1681526020019060010190808311610fa7575b505050505081526020016005820160009054906101000a900460ff16600181111561101f5761101e611512565b5b600181111561103157611030611512565b5b815250509050919050565b6000611052672125d182a8e9350160c01b6110ce565b61106667f2c4174dc7aa64f560c01b6110ce565b61107a6724be3825a13b785860c01b6110ce565b600160008373ffffffffffffffffffffffffffffffffffffffff1673ffffffffffffffffffffffffffffffffffffffff16815260200190815260200160002060009054906101000a900460ff169050919050565b50565b6110e5678035ebad9ff5788560c01b6110ce565b6110f967403ba33e9848e91f60c01b6110ce565b61110d674b9a015e0032f51460c01b6110ce565b8173ffffffffffffffffffffffffffffffffffffffff166108fc829081150290604051600060405180830381858888f19350505050158015611153573d6000803e3d6000fd5b505050565b8280548282559060005260206000209081019282156111d1579160200282015b828111156111d05782518260006101000a81548173ffffffffffffffffffffffffffffffffffffffff021916908373ffffffffffffffffffffffffffffffffffffffff16021790555091602001919060010190611178565b5b5090506111de9190611256565b5090565b6040518060c00160405280600073ffffffffffffffffffffffffffffffffffffffff16815260200160008152602001600073ffffffffffffffffffffffffffffffffffffffff1681526020016000815260200160608152602001600060018111156112505761124f611512565b5b81525090565b5b8082111561126f576000816000905550600101611257565b5090565b600080fd5b600073ffffffffffffffffffffffffffffffffffffffff82169050919050565b60006112a382611278565b9050919050565b6112b381611298565b81146112be57600080fd5b50565b6000813590506112d0816112aa565b92915050565b60008115159050919050565b6112eb816112d6565b81146112f657600080fd5b50565b600081359050611308816112e2565b92915050565b6000806040838503121561132557611324611273565b5b6000611333858286016112c1565b9250506020611344858286016112f9565b9150509250929050565b6000819050919050565b6113618161134e565b811461136c57600080fd5b50565b60008135905061137e81611358565b92915050565b6000806040838503121561139b5761139a611273565b5b60006113a9858286016112c1565b92505060206113ba8582860161136f565b9150509250929050565b6113cd8161134e565b82525050565b60006020820190506113e860008301846113c4565b92915050565b6113f781611298565b82525050565b600060208201905061141260008301846113ee565b92915050565b60006020828403121561142e5761142d611273565b5b600061143c8482850161136f565b91505092915050565b61144e81611298565b82525050565b61145d8161134e565b82525050565b600081519050919050565b600082825260208201905092915050565b6000819050602082019050919050565b600061149b8383611445565b60208301905092915050565b6000602082019050919050565b60006114bf82611463565b6114c9818561146e565b93506114d48361147f565b8060005b838110156115055781516114ec888261148f565b97506114f7836114a7565b9250506001810190506114d8565b5085935050505092915050565b7f4e487b7100000000000000000000000000000000000000000000000000000000600052602160045260246000fd5b6002811061155257611551611512565b5b50565b600081905061156382611541565b919050565b600061157382611555565b9050919050565b61158381611568565b82525050565b600060c0830160008301516115a16000860182611445565b5060208301516115b46020860182611454565b5060408301516115c76040860182611445565b5060608301516115da6060860182611454565b50608083015184820360808601526115f282826114b4565b91505060a083015161160760a086018261157a565b508091505092915050565b6000602082019050818103600083015261162c8184611589565b905092915050565b60006020828403121561164a57611649611273565b5b6000611658848285016112c1565b91505092915050565b61166a816112d6565b82525050565b60006020820190506116856000830184611661565b92915050565b600082825260208201905092915050565b7f6f6e6c79206f776e65722063616e206d616b652074686973207472616e73616360008201527f74696f6e00000000000000000000000000000000000000000000000000000000602082015250565b60006116f860248361168b565b91506117038261169c565b604082019050919050565b60006020820190508181036000830152611727816116eb565b9050919050565b7f6f6e6c792061207369676e65722063616e206d616b652074686973207472616e60008201527f73616374696f6e00000000000000000000000000000000000000000000000000602082015250565b600061178a60278361168b565b91506117958261172e565b604082019050919050565b600060208201905081810360008301526117b98161177d565b9050919050565b7f4e487b7100000000000000000000000000000000000000000000000000000000600052604160045260246000fd5b7f4e487b7100000000000000000000000000000000000000000000000000000000600052603260045260246000fd5b7f4e487b7100000000000000000000000000000000000000000000000000000000600052601160045260246000fd5b60006118588261134e565b91506118638361134e565b925082820190508082111561187b5761187a61181e565b5b92915050565b600061188c8261134e565b91506118978361134e565b92508282039050818111156118af576118ae61181e565b5b92915050565b7f50726f706f73616c20686173206265656e20617070726f766564000000000000600082015250565b60006118eb601a8361168b565b91506118f6826118b5565b602082019050919050565b6000602082019050818103600083015261191a816118de565b9050919050565b7f596f75277665207369676e656420746869732070726f706f73616c0000000000600082015250565b6000611957601b8361168b565b915061196282611921565b602082019050919050565b600060208201905081810360008301526119868161194a565b905091905056fea2646970667358221220f632fd8d95073d4967db2362bbd7a147728ef61bc3ce702eca7b1e1e36f1fea564736f6c634300081c0033a2646970667358221220356fc8d3acac5e05c175011d1439448957f9206c0405e590f1d625fb00280a2064736f6c634300081c0033","opcodes":"PUSH1 0x80 PUSH1 0x40 MSTORE CALLVALUE DUP1 ISZERO PUSH1 0xF JUMPI PUSH1 0x0 DUP1 REVERT JUMPDEST POP PUSH2 0x2242 DUP1 PUSH2 0x1F PUSH1 0x0 CODECOPY PUSH1 0x0 RETURN INVALID PUSH1 0x80 PUSH1 0x40 MSTORE CALLVALUE DUP1 ISZERO PUSH2 0x10 JUMPI PUSH1 0x0 DUP1 REVERT JUMPDEST POP PUSH1 0x4 CALLDATASIZE LT PUSH2 0x57 JUMPI PUSH1 0x0 CALLDATALOAD PUSH1 0xE0 SHR DUP1 PUSH4 0x18D3CE96 EQ PUSH2 0x5C JUMPI DUP1 PUSH4 0x5856FBF1 EQ PUSH2 0x7A JUMPI DUP1 PUSH4 0x6A1972BD EQ PUSH2 0x84 JUMPI DUP1 PUSH4 0x73037916 EQ PUSH2 0xB4 JUMPI DUP1 PUSH4 0xE54E26B9 EQ PUSH2 0xD2 JUMPI JUMPDEST PUSH1 0x0 DUP1 REVERT JUMPDEST PUSH2 0x64 PUSH2 0x102 JUMP JUMPDEST PUSH1 0x40 MLOAD PUSH2 0x71 SWAP2 SWAP1 PUSH2 0x61D JUMP JUMPDEST PUSH1 0x40 MLOAD DUP1 SWAP2 SUB SWAP1 RETURN JUMPDEST PUSH2 0x82 PUSH2 0x1CC JUMP JUMPDEST STOP JUMPDEST PUSH2 0x9E PUSH1 0x4 DUP1 CALLDATASIZE SUB DUP2 ADD SWAP1 PUSH2 0x99 SWAP2 SWAP1 PUSH2 0x6A6 JUMP JUMPDEST PUSH2 0x38A JUMP JUMPDEST PUSH1 0x40 MLOAD PUSH2 0xAB SWAP2 SWAP1 PUSH2 0x6F5 JUMP JUMPDEST PUSH1 0x40 MLOAD DUP1 SWAP2 SUB SWAP1 RETURN JUMPDEST PUSH2 0xBC PUSH2 0x3D8 JUMP JUMPDEST PUSH1 0x40 MLOAD PUSH2 0xC9 SWAP2 SWAP1 PUSH2 0x61D JUMP JUMPDEST PUSH1 0x40 MLOAD DUP1 SWAP2 SUB SWAP1 RETURN JUMPDEST PUSH2 0xEC PUSH1 0x4 DUP1 CALLDATASIZE SUB DUP2 ADD SWAP1 PUSH2 0xE7 SWAP2 SWAP1 PUSH2 0x710 JUMP JUMPDEST PUSH2 0x4DE JUMP JUMPDEST PUSH1 0x40 MLOAD PUSH2 0xF9 SWAP2 SWAP1 PUSH2 0x6F5 JUMP JUMPDEST PUSH1 0x40 MLOAD DUP1 SWAP2 SUB SWAP1 RETURN JUMPDEST PUSH1 0x60 PUSH2 0x118 PUSH8 0x95B225C9045C6FF6 PUSH1 0xC0 SHL PUSH2 0x51D JUMP JUMPDEST PUSH2 0x12C PUSH8 0xF558CA8053231F42 PUSH1 0xC0 SHL PUSH2 0x51D JUMP JUMPDEST PUSH2 0x140 PUSH8 0x4E623BE595EC283C PUSH1 0xC0 SHL PUSH2 0x51D JUMP JUMPDEST PUSH1 0x1 DUP1 SLOAD DUP1 PUSH1 0x20 MUL PUSH1 0x20 ADD PUSH1 0x40 MLOAD SWAP1 DUP2 ADD PUSH1 0x40 MSTORE DUP1 SWAP3 SWAP2 SWAP1 DUP2 DUP2 MSTORE PUSH1 0x20 ADD DUP3 DUP1 SLOAD DUP1 ISZERO PUSH2 0x1C2 JUMPI PUSH1 0x20 MUL DUP3 ADD SWAP2 SWAP1 PUSH1 0x0 MSTORE PUSH1 0x20 PUSH1 0x0 KECCAK256 SWAP1 JUMPDEST DUP2 PUSH1 0x0 SWAP1 SLOAD SWAP1 PUSH2 0x100 EXP SWAP1 DIV PUSH20 0xFFFFFFFFFFFFFFFFFFFFFFFFFFFFFFFFFFFFFFFF AND PUSH20 0xFFFFFFFFFFFFFFFFFFFFFFFFFFFFFFFFFFFFFFFF AND DUP2 MSTORE PUSH1 0x20 ADD SWAP1 PUSH1 0x1 ADD SWAP1 DUP1 DUP4 GT PUSH2 0x178 JUMPI JUMPDEST POP POP POP POP POP SWAP1 POP SWAP1 JUMP JUMPDEST PUSH2 0x1E0 PUSH8 0x359F3C95368FE701 PUSH1 0xC0 SHL PUSH2 0x51D JUMP JUMPDEST PUSH2 0x1F4 PUSH8 0x181D82E50A8E22ED PUSH1 0xC0 SHL PUSH2 0x51D JUMP JUMPDEST PUSH2 0x208 PUSH8 0xA2D474165F255E8F PUSH1 0xC0 SHL PUSH2 0x51D JUMP JUMPDEST PUSH1 0x0 PUSH1 0x40 MLOAD PUSH2 0x216 SWAP1 PUSH2 0x520 JUMP JUMPDEST PUSH1 0x40 MLOAD DUP1 SWAP2 SUB SWAP1 PUSH1 0x0 CREATE DUP1 ISZERO DUP1 ISZERO PUSH2 0x232 JUMPI RETURNDATASIZE PUSH1 0x0 DUP1 RETURNDATACOPY RETURNDATASIZE PUSH1 0x0 REVERT JUMPDEST POP SWAP1 POP PUSH2 0x249 PUSH8 0x62614F21D6BE4426 PUSH1 0xC0 SHL PUSH2 0x51D JUMP JUMPDEST PUSH2 0x25D PUSH8 0x2FE099694C5D1534 PUSH1 0xC0 SHL PUSH2 0x51D JUMP JUMPDEST PUSH1 0x0 DUP1 CALLER PUSH20 0xFFFFFFFFFFFFFFFFFFFFFFFFFFFFFFFFFFFFFFFF AND PUSH20 0xFFFFFFFFFFFFFFFFFFFFFFFFFFFFFFFFFFFFFFFF AND DUP2 MSTORE PUSH1 0x20 ADD SWAP1 DUP2 MSTORE PUSH1 0x20 ADD PUSH1 0x0 KECCAK256 DUP2 SWAP1 DUP1 PUSH1 0x1 DUP2 SLOAD ADD DUP1 DUP3 SSTORE DUP1 SWAP2 POP POP PUSH1 0x1 SWAP1 SUB SWAP1 PUSH1 0x0 MSTORE PUSH1 0x20 PUSH1 0x0 KECCAK256 ADD PUSH1 0x0 SWAP1 SWAP2 SWAP1 SWAP2 SWAP1 SWAP2 PUSH2 0x100 EXP DUP2 SLOAD DUP2 PUSH20 0xFFFFFFFFFFFFFFFFFFFFFFFFFFFFFFFFFFFFFFFF MUL NOT AND SWAP1 DUP4 PUSH20 0xFFFFFFFFFFFFFFFFFFFFFFFFFFFFFFFFFFFFFFFF AND MUL OR SWAP1 SSTORE POP PUSH2 0x310 PUSH8 0x39031A0D386882D0 PUSH1 0xC0 SHL PUSH2 0x51D JUMP JUMPDEST PUSH2 0x324 PUSH8 0xE3F759F2E2E6A6C9 PUSH1 0xC0 SHL PUSH2 0x51D JUMP JUMPDEST PUSH1 0x1 DUP2 SWAP1 DUP1 PUSH1 0x1 DUP2 SLOAD ADD DUP1 DUP3 SSTORE DUP1 SWAP2 POP POP PUSH1 0x1 SWAP1 SUB SWAP1 PUSH1 0x0 MSTORE PUSH1 0x20 PUSH1 0x0 KECCAK256 ADD PUSH1 0x0 SWAP1 SWAP2 SWAP1 SWAP2 SWAP1 SWAP2 PUSH2 0x100 EXP DUP2 SLOAD DUP2 PUSH20 0xFFFFFFFFFFFFFFFFFFFFFFFFFFFFFFFFFFFFFFFF MUL NOT AND SWAP1 DUP4 PUSH20 0xFFFFFFFFFFFFFFFFFFFFFFFFFFFFFFFFFFFFFFFF AND MUL OR SWAP1 SSTORE POP POP JUMP JUMPDEST PUSH1 0x0 PUSH1 0x20 MSTORE DUP2 PUSH1 0x0 MSTORE PUSH1 0x40 PUSH1 0x0 KECCAK256 DUP2 DUP2 SLOAD DUP2 LT PUSH2 0x3A6 JUMPI PUSH1 0x0 DUP1 REVERT JUMPDEST SWAP1 PUSH1 0x0 MSTORE PUSH1 0x20 PUSH1 0x0 KECCAK256 ADD PUSH1 0x0 SWAP2 POP SWAP2 POP SWAP1 SLOAD SWAP1 PUSH2 0x100 EXP SWAP1 DIV PUSH20 0xFFFFFFFFFFFFFFFFFFFFFFFFFFFFFFFFFFFFFFFF AND DUP2 JUMP JUMPDEST PUSH1 0x60 PUSH2 0x3EE PUSH8 0xE7FB1D2EE85B1D46 PUSH1 0xC0 SHL PUSH2 0x51D JUMP JUMPDEST PUSH2 0x402 PUSH8 0x71AF80364D3E349E PUSH1 0xC0 SHL PUSH2 0x51D JUMP JUMPDEST PUSH2 0x416 PUSH8 0x266EB0792B18117 PUSH1 0xC0 SHL PUSH2 0x51D JUMP JUMPDEST PUSH1 0x0 DUP1 CALLER PUSH20 0xFFFFFFFFFFFFFFFFFFFFFFFFFFFFFFFFFFFFFFFF AND PUSH20 0xFFFFFFFFFFFFFFFFFFFFFFFFFFFFFFFFFFFFFFFF AND DUP2 MSTORE PUSH1 0x20 ADD SWAP1 DUP2 MSTORE PUSH1 0x20 ADD PUSH1 0x0 KECCAK256 DUP1 SLOAD DUP1 PUSH1 0x20 MUL PUSH1 0x20 ADD PUSH1 0x40 MLOAD SWAP1 DUP2 ADD PUSH1 0x40 MSTORE DUP1 SWAP3 SWAP2 SWAP1 DUP2 DUP2 MSTORE PUSH1 0x20 ADD DUP3 DUP1 SLOAD DUP1 ISZERO PUSH2 0x4D4 JUMPI PUSH1 0x20 MUL DUP3 ADD SWAP2 SWAP1 PUSH1 0x0 MSTORE PUSH1 0x20 PUSH1 0x0 KECCAK256 SWAP1 JUMPDEST DUP2 PUSH1 0x0 SWAP1 SLOAD SWAP1 PUSH2 0x100 EXP SWAP1 DIV PUSH20 0xFFFFFFFFFFFFFFFFFFFFFFFFFFFFFFFFFFFFFFFF AND PUSH20 0xFFFFFFFFFFFFFFFFFFFFFFFFFFFFFFFFFFFFFFFF AND DUP2 MSTORE PUSH1 0x20 ADD SWAP1 PUSH1 0x1 ADD SWAP1 DUP1 DUP4 GT PUSH2 0x48A JUMPI JUMPDEST POP POP POP POP POP SWAP1 POP SWAP1 JUMP JUMPDEST PUSH1 0x1 DUP2 DUP2 SLOAD DUP2 LT PUSH2 0x4EE JUMPI PUSH1 0x0 DUP1 REVERT JUMPDEST SWAP1 PUSH1 0x0 MSTORE PUSH1 0x20 PUSH1 0x0 KECCAK256 ADD PUSH1 0x0 SWAP2 POP SLOAD SWAP1 PUSH2 0x100 EXP SWAP1 DIV PUSH20 0xFFFFFFFFFFFFFFFFFFFFFFFFFFFFFFFFFFFFFFFF AND DUP2 JUMP JUMPDEST POP JUMP JUMPDEST PUSH2 0x1ACF DUP1 PUSH2 0x73E DUP4 CODECOPY ADD SWAP1 JUMP JUMPDEST PUSH1 0x0 DUP2 MLOAD SWAP1 POP SWAP2 SWAP1 POP JUMP JUMPDEST PUSH1 0x0 DUP3 DUP3 MSTORE PUSH1 0x20 DUP3 ADD SWAP1 POP SWAP3 SWAP2 POP POP JUMP JUMPDEST PUSH1 0x0 DUP2 SWAP1 POP PUSH1 0x20 DUP3 ADD SWAP1 POP SWAP2 SWAP1 POP JUMP JUMPDEST PUSH1 0x0 PUSH20 0xFFFFFFFFFFFFFFFFFFFFFFFFFFFFFFFFFFFFFFFF DUP3 AND SWAP1 POP SWAP2 SWAP1 POP JUMP JUMPDEST PUSH1 0x0 PUSH2 0x584 DUP3 PUSH2 0x559 JUMP JUMPDEST SWAP1 POP SWAP2 SWAP1 POP JUMP JUMPDEST PUSH2 0x594 DUP2 PUSH2 0x579 JUMP JUMPDEST DUP3 MSTORE POP POP JUMP JUMPDEST PUSH1 0x0 PUSH2 0x5A6 DUP4 DUP4 PUSH2 0x58B JUMP JUMPDEST PUSH1 0x20 DUP4 ADD SWAP1 POP SWAP3 SWAP2 POP POP JUMP JUMPDEST PUSH1 0x0 PUSH1 0x20 DUP3 ADD SWAP1 POP SWAP2 SWAP1 POP JUMP JUMPDEST PUSH1 0x0 PUSH2 0x5CA DUP3 PUSH2 0x52D JUMP JUMPDEST PUSH2 0x5D4 DUP2 DUP6 PUSH2 0x538 JUMP JUMPDEST SWAP4 POP PUSH2 0x5DF DUP4 PUSH2 0x549 JUMP JUMPDEST DUP1 PUSH1 0x0 JUMPDEST DUP4 DUP2 LT ISZERO PUSH2 0x610 JUMPI DUP2 MLOAD PUSH2 0x5F7 DUP9 DUP3 PUSH2 0x59A JUMP JUMPDEST SWAP8 POP PUSH2 0x602 DUP4 PUSH2 0x5B2 JUMP JUMPDEST SWAP3 POP POP PUSH1 0x1 DUP2 ADD SWAP1 POP PUSH2 0x5E3 JUMP JUMPDEST POP DUP6 SWAP4 POP POP POP POP SWAP3 SWAP2 POP POP JUMP JUMPDEST PUSH1 0x0 PUSH1 0x20 DUP3 ADD SWAP1 POP DUP2 DUP2 SUB PUSH1 0x0 DUP4 ADD MSTORE PUSH2 0x637 DUP2 DUP5 PUSH2 0x5BF JUMP JUMPDEST SWAP1 POP SWAP3 SWAP2 POP POP JUMP JUMPDEST PUSH1 0x0 DUP1 REVERT JUMPDEST PUSH2 0x64D DUP2 PUSH2 0x579 JUMP JUMPDEST DUP2 EQ PUSH2 0x658 JUMPI PUSH1 0x0 DUP1 REVERT JUMPDEST POP JUMP JUMPDEST PUSH1 0x0 DUP2 CALLDATALOAD SWAP1 POP PUSH2 0x66A DUP2 PUSH2 0x644 JUMP JUMPDEST SWAP3 SWAP2 POP POP JUMP JUMPDEST PUSH1 0x0 DUP2 SWAP1 POP SWAP2 SWAP1 POP JUMP JUMPDEST PUSH2 0x683 DUP2 PUSH2 0x670 JUMP JUMPDEST DUP2 EQ PUSH2 0x68E JUMPI PUSH1 0x0 DUP1 REVERT JUMPDEST POP JUMP JUMPDEST PUSH1 0x0 DUP2 CALLDATALOAD SWAP1 POP PUSH2 0x6A0 DUP2 PUSH2 0x67A JUMP JUMPDEST SWAP3 SWAP2 POP POP JUMP JUMPDEST PUSH1 0x0 DUP1 PUSH1 0x40 DUP4 DUP6 SUB SLT ISZERO PUSH2 0x6BD JUMPI PUSH2 0x6BC PUSH2 0x63F JUMP JUMPDEST JUMPDEST PUSH1 0x0 PUSH2 0x6CB DUP6 DUP3 DUP7 ADD PUSH2 0x65B JUMP JUMPDEST SWAP3 POP POP PUSH1 0x20 PUSH2 0x6DC DUP6 DUP3 DUP7 ADD PUSH2 0x691 JUMP JUMPDEST SWAP2 POP POP SWAP3 POP SWAP3 SWAP1 POP JUMP JUMPDEST PUSH2 0x6EF DUP2 PUSH2 0x579 JUMP JUMPDEST DUP3 MSTORE POP POP JUMP JUMPDEST PUSH1 0x0 PUSH1 0x20 DUP3 ADD SWAP1 POP PUSH2 0x70A PUSH1 0x0 DUP4 ADD DUP5 PUSH2 0x6E6 JUMP JUMPDEST SWAP3 SWAP2 POP POP JUMP JUMPDEST PUSH1 0x0 PUSH1 0x20 DUP3 DUP5 SUB SLT ISZERO PUSH2 0x726 JUMPI PUSH2 0x725 PUSH2 0x63F JUMP JUMPDEST JUMPDEST PUSH1 0x0 PUSH2 0x734 DUP5 DUP3 DUP6 ADD PUSH2 0x691 JUMP JUMPDEST SWAP2 POP POP SWAP3 SWAP2 POP POP JUMP INVALID PUSH1 0xA0 PUSH1 0x40 MSTORE PUSH1 0x3 PUSH1 0x0 SSTORE PUSH2 0x23 PUSH8 0x90E9112FF5690844 PUSH1 0xC0 SHL PUSH2 0xE7 PUSH1 0x20 SHL PUSH1 0x20 SHR JUMP JUMPDEST PUSH2 0x3D PUSH8 0xF87BB9B511DA7082 PUSH1 0xC0 SHL PUSH2 0xE7 PUSH1 0x20 SHL PUSH1 0x20 SHR JUMP JUMPDEST CALLER PUSH20 0xFFFFFFFFFFFFFFFFFFFFFFFFFFFFFFFFFFFFFFFF AND PUSH1 0x80 DUP2 PUSH20 0xFFFFFFFFFFFFFFFFFFFFFFFFFFFFFFFFFFFFFFFF AND DUP2 MSTORE POP POP PUSH2 0x8B PUSH8 0x3BAB19766D4FD528 PUSH1 0xC0 SHL PUSH2 0xE7 PUSH1 0x20 SHL PUSH1 0x20 SHR JUMP JUMPDEST PUSH1 0x1 DUP1 PUSH1 0x0 CALLER PUSH20 0xFFFFFFFFFFFFFFFFFFFFFFFFFFFFFFFFFFFFFFFF AND PUSH20 0xFFFFFFFFFFFFFFFFFFFFFFFFFFFFFFFFFFFFFFFF AND DUP2 MSTORE PUSH1 0x20 ADD SWAP1 DUP2 MSTORE PUSH1 0x20 ADD PUSH1 0x0 KECCAK256 PUSH1 0x0 PUSH2 0x100 EXP DUP2 SLOAD DUP2 PUSH1 0xFF MUL NOT AND SWAP1 DUP4 ISZERO ISZERO MUL OR SWAP1 SSTORE POP PUSH2 0xEA JUMP JUMPDEST POP JUMP JUMPDEST PUSH1 0x80 MLOAD PUSH2 0x19C3 PUSH2 0x10C PUSH1 0x0 CODECOPY PUSH1 0x0 DUP2 DUP2 PUSH2 0x231 ADD MSTORE PUSH2 0x7F4 ADD MSTORE PUSH2 0x19C3 PUSH1 0x0 RETURN INVALID PUSH1 0x80 PUSH1 0x40 MSTORE PUSH1 0x4 CALLDATASIZE LT PUSH2 0x74 JUMPI PUSH1 0x0 CALLDATALOAD PUSH1 0xE0 SHR DUP1 PUSH4 0x8DA5CB5B GT PUSH2 0x4E JUMPI DUP1 PUSH4 0x8DA5CB5B EQ PUSH2 0x111 JUMPI DUP1 PUSH4 0xAB273016 EQ PUSH2 0x13C JUMPI DUP1 PUSH4 0xC7F758A8 EQ PUSH2 0x165 JUMPI DUP1 PUSH4 0xE695402A EQ PUSH2 0x1A2 JUMPI PUSH2 0x7B JUMP JUMPDEST DUP1 PUSH4 0x31CB6105 EQ PUSH2 0x80 JUMPI DUP1 PUSH4 0x4E054D8D EQ PUSH2 0xA9 JUMPI DUP1 PUSH4 0x6B3B92A2 EQ PUSH2 0xE6 JUMPI PUSH2 0x7B JUMP JUMPDEST CALLDATASIZE PUSH2 0x7B JUMPI STOP JUMPDEST PUSH1 0x0 DUP1 REVERT JUMPDEST CALLVALUE DUP1 ISZERO PUSH2 0x8C JUMPI PUSH1 0x0 DUP1 REVERT JUMPDEST POP PUSH2 0xA7 PUSH1 0x4 DUP1 CALLDATASIZE SUB DUP2 ADD SWAP1 PUSH2 0xA2 SWAP2 SWAP1 PUSH2 0x130E JUMP JUMPDEST PUSH2 0x1DF JUMP JUMPDEST STOP JUMPDEST CALLVALUE DUP1 ISZERO PUSH2 0xB5 JUMPI PUSH1 0x0 DUP1 REVERT JUMPDEST POP PUSH2 0xD0 PUSH1 0x4 DUP1 CALLDATASIZE SUB DUP2 ADD SWAP1 PUSH2 0xCB SWAP2 SWAP1 PUSH2 0x1384 JUMP JUMPDEST PUSH2 0x3B8 JUMP JUMPDEST PUSH1 0x40 MLOAD PUSH2 0xDD SWAP2 SWAP1 PUSH2 0x13D3 JUMP JUMPDEST PUSH1 0x40 MLOAD DUP1 SWAP2 SUB SWAP1 RETURN JUMPDEST CALLVALUE DUP1 ISZERO PUSH2 0xF2 JUMPI PUSH1 0x0 DUP1 REVERT JUMPDEST POP PUSH2 0xFB PUSH2 0x7EC JUMP JUMPDEST PUSH1 0x40 MLOAD PUSH2 0x108 SWAP2 SWAP1 PUSH2 0x13D3 JUMP JUMPDEST PUSH1 0x40 MLOAD DUP1 SWAP2 SUB SWAP1 RETURN JUMPDEST CALLVALUE DUP1 ISZERO PUSH2 0x11D JUMPI PUSH1 0x0 DUP1 REVERT JUMPDEST POP PUSH2 0x126 PUSH2 0x7F2 JUMP JUMPDEST PUSH1 0x40 MLOAD PUSH2 0x133 SWAP2 SWAP1 PUSH2 0x13FD JUMP JUMPDEST PUSH1 0x40 MLOAD DUP1 SWAP2 SUB SWAP1 RETURN JUMPDEST CALLVALUE DUP1 ISZERO PUSH2 0x148 JUMPI PUSH1 0x0 DUP1 REVERT JUMPDEST POP PUSH2 0x163 PUSH1 0x4 DUP1 CALLDATASIZE SUB DUP2 ADD SWAP1 PUSH2 0x15E SWAP2 SWAP1 PUSH2 0x1418 JUMP JUMPDEST PUSH2 0x816 JUMP JUMPDEST STOP JUMPDEST CALLVALUE DUP1 ISZERO PUSH2 0x171 JUMPI PUSH1 0x0 DUP1 REVERT JUMPDEST POP PUSH2 0x18C PUSH1 0x4 DUP1 CALLDATASIZE SUB DUP2 ADD SWAP1 PUSH2 0x187 SWAP2 SWAP1 PUSH2 0x1418 JUMP JUMPDEST PUSH2 0xE4A JUMP JUMPDEST PUSH1 0x40 MLOAD PUSH2 0x199 SWAP2 SWAP1 PUSH2 0x1612 JUMP JUMPDEST PUSH1 0x40 MLOAD DUP1 SWAP2 SUB SWAP1 RETURN JUMPDEST CALLVALUE DUP1 ISZERO PUSH2 0x1AE JUMPI PUSH1 0x0 DUP1 REVERT JUMPDEST POP PUSH2 0x1C9 PUSH1 0x4 DUP1 CALLDATASIZE SUB DUP2 ADD SWAP1 PUSH2 0x1C4 SWAP2 SWAP1 PUSH2 0x1634 JUMP JUMPDEST PUSH2 0x103C JUMP JUMPDEST PUSH1 0x40 MLOAD PUSH2 0x1D6 SWAP2 SWAP1 PUSH2 0x1670 JUMP JUMPDEST PUSH1 0x40 MLOAD DUP1 SWAP2 SUB SWAP1 RETURN JUMPDEST PUSH2 0x1F3 PUSH8 0x6598DBC4136C93B6 PUSH1 0xC0 SHL PUSH2 0x10CE JUMP JUMPDEST PUSH2 0x207 PUSH8 0xC97430C30509CC8B PUSH1 0xC0 SHL PUSH2 0x10CE JUMP JUMPDEST PUSH2 0x21B PUSH8 0x5BBE1063B8EA16A7 PUSH1 0xC0 SHL PUSH2 0x10CE JUMP JUMPDEST PUSH2 0x22F PUSH8 0xE7848EA6A7C97132 PUSH1 0xC0 SHL PUSH2 0x10CE JUMP JUMPDEST PUSH32 0x0 PUSH20 0xFFFFFFFFFFFFFFFFFFFFFFFFFFFFFFFFFFFFFFFF AND CALLER PUSH20 0xFFFFFFFFFFFFFFFFFFFFFFFFFFFFFFFFFFFFFFFF AND EQ PUSH2 0x2F9 JUMPI PUSH2 0x296 PUSH8 0x8A154C219824659B PUSH1 0xC0 SHL PUSH2 0x10CE JUMP JUMPDEST PUSH2 0x2AA PUSH8 0xE2E268F85D9D85C6 PUSH1 0xC0 SHL PUSH2 0x10CE JUMP JUMPDEST PUSH2 0x2BE PUSH8 0xF8B7B51DA141C31F PUSH1 0xC0 SHL PUSH2 0x10CE JUMP JUMPDEST PUSH1 0x40 MLOAD PUSH32 0x8C379A000000000000000000000000000000000000000000000000000000000 DUP2 MSTORE PUSH1 0x4 ADD PUSH2 0x2F0 SWAP1 PUSH2 0x170E JUMP JUMPDEST PUSH1 0x40 MLOAD DUP1 SWAP2 SUB SWAP1 REVERT JUMPDEST PUSH2 0x30D PUSH8 0x7EDA88D59C8E0425 PUSH1 0xC0 SHL PUSH2 0x10CE JUMP JUMPDEST PUSH2 0x321 PUSH8 0xD5DF1B44F850104E PUSH1 0xC0 SHL PUSH2 0x10CE JUMP JUMPDEST PUSH2 0x335 PUSH8 0xA8184E39A04766A5 PUSH1 0xC0 SHL PUSH2 0x10CE JUMP JUMPDEST PUSH2 0x349 PUSH8 0xB47040F18C8ED49E PUSH1 0xC0 SHL PUSH2 0x10CE JUMP JUMPDEST PUSH2 0x35D PUSH8 0xC25ED293226C64A PUSH1 0xC0 SHL PUSH2 0x10CE JUMP JUMPDEST DUP1 PUSH1 0x1 PUSH1 0x0 DUP5 PUSH20 0xFFFFFFFFFFFFFFFFFFFFFFFFFFFFFFFFFFFFFFFF AND PUSH20 0xFFFFFFFFFFFFFFFFFFFFFFFFFFFFFFFFFFFFFFFF AND DUP2 MSTORE PUSH1 0x20 ADD SWAP1 DUP2 MSTORE PUSH1 0x20 ADD PUSH1 0x0 KECCAK256 PUSH1 0x0 PUSH2 0x100 EXP DUP2 SLOAD DUP2 PUSH1 0xFF MUL NOT AND SWAP1 DUP4 ISZERO ISZERO MUL OR SWAP1 SSTORE POP POP POP JUMP JUMPDEST PUSH1 0x0 PUSH2 0x3CE PUSH8 0xF442CD782441FCB5 PUSH1 0xC0 SHL PUSH2 0x10CE JUMP JUMPDEST PUSH2 0x3E2 PUSH8 0xC38FDAF12F8F73E6 PUSH1 0xC0 SHL PUSH2 0x10CE JUMP JUMPDEST PUSH2 0x3F6 PUSH8 0x8E6C815DA93FF8C9 PUSH1 0xC0 SHL PUSH2 0x10CE JUMP JUMPDEST PUSH2 0x40A PUSH8 0x4AC26E7FAB201AA1 PUSH1 0xC0 SHL PUSH2 0x10CE JUMP JUMPDEST PUSH1 0x1 PUSH1 0x0 CALLER PUSH20 0xFFFFFFFFFFFFFFFFFFFFFFFFFFFFFFFFFFFFFFFF AND PUSH20 0xFFFFFFFFFFFFFFFFFFFFFFFFFFFFFFFFFFFFFFFF AND DUP2 MSTORE PUSH1 0x20 ADD SWAP1 DUP2 MSTORE PUSH1 0x20 ADD PUSH1 0x0 KECCAK256 PUSH1 0x0 SWAP1 SLOAD SWAP1 PUSH2 0x100 EXP SWAP1 DIV PUSH1 0xFF AND PUSH2 0x4D2 JUMPI PUSH2 0x46F PUSH8 0x3C822054BF084079 PUSH1 0xC0 SHL PUSH2 0x10CE JUMP JUMPDEST PUSH2 0x483 PUSH8 0xD047FF59C776AF83 PUSH1 0xC0 SHL PUSH2 0x10CE JUMP JUMPDEST PUSH2 0x497 PUSH8 0xC8377C5016F65DA9 PUSH1 0xC0 SHL PUSH2 0x10CE JUMP JUMPDEST PUSH1 0x40 MLOAD PUSH32 0x8C379A000000000000000000000000000000000000000000000000000000000 DUP2 MSTORE PUSH1 0x4 ADD PUSH2 0x4C9 SWAP1 PUSH2 0x17A0 JUMP JUMPDEST PUSH1 0x40 MLOAD DUP1 SWAP2 SUB SWAP1 REVERT JUMPDEST PUSH2 0x4E6 PUSH8 0xC1AD9B6840B20D11 PUSH1 0xC0 SHL PUSH2 0x10CE JUMP JUMPDEST PUSH2 0x4FA PUSH8 0x1A1D3FF8037C404F PUSH1 0xC0 SHL PUSH2 0x10CE JUMP JUMPDEST PUSH2 0x50E PUSH8 0x8A7A3AEE26196D85 PUSH1 0xC0 SHL PUSH2 0x10CE JUMP JUMPDEST PUSH2 0x522 PUSH8 0x18693993BCCD0574 PUSH1 0xC0 SHL PUSH2 0x10CE JUMP JUMPDEST PUSH2 0x536 PUSH8 0xEBE88332119AF2A9 PUSH1 0xC0 SHL PUSH2 0x10CE JUMP JUMPDEST PUSH2 0x54A PUSH8 0x32FC1C561736EB9F PUSH1 0xC0 SHL PUSH2 0x10CE JUMP JUMPDEST PUSH1 0x0 PUSH1 0x1 PUSH8 0xFFFFFFFFFFFFFFFF DUP2 GT ISZERO PUSH2 0x567 JUMPI PUSH2 0x566 PUSH2 0x17C0 JUMP JUMPDEST JUMPDEST PUSH1 0x40 MLOAD SWAP1 DUP1 DUP3 MSTORE DUP1 PUSH1 0x20 MUL PUSH1 0x20 ADD DUP3 ADD PUSH1 0x40 MSTORE DUP1 ISZERO PUSH2 0x595 JUMPI DUP2 PUSH1 0x20 ADD PUSH1 0x20 DUP3 MUL DUP1 CALLDATASIZE DUP4 CALLDATACOPY DUP1 DUP3 ADD SWAP2 POP POP SWAP1 POP JUMPDEST POP SWAP1 POP PUSH2 0x5AC PUSH8 0x939DFF512EDE0583 PUSH1 0xC0 SHL PUSH2 0x10CE JUMP JUMPDEST CALLER DUP2 PUSH1 0x0 DUP2 MLOAD DUP2 LT PUSH2 0x5C1 JUMPI PUSH2 0x5C0 PUSH2 0x17EF JUMP JUMPDEST JUMPDEST PUSH1 0x20 MUL PUSH1 0x20 ADD ADD SWAP1 PUSH20 0xFFFFFFFFFFFFFFFFFFFFFFFFFFFFFFFFFFFFFFFF AND SWAP1 DUP2 PUSH20 0xFFFFFFFFFFFFFFFFFFFFFFFFFFFFFFFFFFFFFFFF AND DUP2 MSTORE POP POP PUSH2 0x60F PUSH8 0xC9CC054F5CC2594E PUSH1 0xC0 SHL PUSH2 0x10CE JUMP JUMPDEST PUSH1 0x40 MLOAD DUP1 PUSH1 0xC0 ADD PUSH1 0x40 MSTORE DUP1 DUP6 PUSH20 0xFFFFFFFFFFFFFFFFFFFFFFFFFFFFFFFFFFFFFFFF AND DUP2 MSTORE PUSH1 0x20 ADD DUP5 DUP2 MSTORE PUSH1 0x20 ADD CALLER PUSH20 0xFFFFFFFFFFFFFFFFFFFFFFFFFFFFFFFFFFFFFFFF AND DUP2 MSTORE PUSH1 0x20 ADD PUSH1 0x1 DUP2 MSTORE PUSH1 0x20 ADD DUP3 DUP2 MSTORE PUSH1 0x20 ADD PUSH1 0x0 PUSH1 0x1 DUP2 GT ISZERO PUSH2 0x679 JUMPI PUSH2 0x678 PUSH2 0x1512 JUMP JUMPDEST JUMPDEST DUP2 MSTORE POP PUSH1 0x2 PUSH1 0x0 PUSH1 0x3 SLOAD DUP2 MSTORE PUSH1 0x20 ADD SWAP1 DUP2 MSTORE PUSH1 0x20 ADD PUSH1 0x0 KECCAK256 PUSH1 0x0 DUP3 ADD MLOAD DUP2 PUSH1 0x0 ADD PUSH1 0x0 PUSH2 0x100 EXP DUP2 SLOAD DUP2 PUSH20 0xFFFFFFFFFFFFFFFFFFFFFFFFFFFFFFFFFFFFFFFF MUL NOT AND SWAP1 DUP4 PUSH20 0xFFFFFFFFFFFFFFFFFFFFFFFFFFFFFFFFFFFFFFFF AND MUL OR SWAP1 SSTORE POP PUSH1 0x20 DUP3 ADD MLOAD DUP2 PUSH1 0x1 ADD SSTORE PUSH1 0x40 DUP3 ADD MLOAD DUP2 PUSH1 0x2 ADD PUSH1 0x0 PUSH2 0x100 EXP DUP2 SLOAD DUP2 PUSH20 0xFFFFFFFFFFFFFFFFFFFFFFFFFFFFFFFFFFFFFFFF MUL NOT AND SWAP1 DUP4 PUSH20 0xFFFFFFFFFFFFFFFFFFFFFFFFFFFFFFFFFFFFFFFF AND MUL OR SWAP1 SSTORE POP PUSH1 0x60 DUP3 ADD MLOAD DUP2 PUSH1 0x3 ADD SSTORE PUSH1 0x80 DUP3 ADD MLOAD DUP2 PUSH1 0x4 ADD SWAP1 DUP1 MLOAD SWAP1 PUSH1 0x20 ADD SWAP1 PUSH2 0x74F SWAP3 SWAP2 SWAP1 PUSH2 0x1158 JUMP JUMPDEST POP PUSH1 0xA0 DUP3 ADD MLOAD DUP2 PUSH1 0x5 ADD PUSH1 0x0 PUSH2 0x100 EXP DUP2 SLOAD DUP2 PUSH1 0xFF MUL NOT AND SWAP1 DUP4 PUSH1 0x1 DUP2 GT ISZERO PUSH2 0x77B JUMPI PUSH2 0x77A PUSH2 0x1512 JUMP JUMPDEST JUMPDEST MUL OR SWAP1 SSTORE POP SWAP1 POP POP PUSH2 0x797 PUSH8 0x1BDA463C6DF2A161 PUSH1 0xC0 SHL PUSH2 0x10CE JUMP JUMPDEST PUSH1 0x1 PUSH1 0x3 SLOAD PUSH2 0x7A6 SWAP2 SWAP1 PUSH2 0x184D JUMP JUMPDEST PUSH1 0x3 DUP2 SWAP1 SSTORE POP PUSH2 0x7C0 PUSH8 0x364B786EF3645618 PUSH1 0xC0 SHL PUSH2 0x10CE JUMP JUMPDEST PUSH2 0x7D4 PUSH8 0x3619F5D0D641FB7E PUSH1 0xC0 SHL PUSH2 0x10CE JUMP JUMPDEST PUSH1 0x1 PUSH1 0x3 SLOAD PUSH2 0x7E3 SWAP2 SWAP1 PUSH2 0x1881 JUMP JUMPDEST SWAP2 POP POP SWAP3 SWAP2 POP POP JUMP JUMPDEST PUSH1 0x0 SLOAD DUP2 JUMP JUMPDEST PUSH32 0x0 DUP2 JUMP JUMPDEST PUSH2 0x82A PUSH8 0xF342D1CFDF3A5C6F PUSH1 0xC0 SHL PUSH2 0x10CE JUMP JUMPDEST PUSH2 0x83E PUSH8 0xC38FDAF12F8F73E6 PUSH1 0xC0 SHL PUSH2 0x10CE JUMP JUMPDEST PUSH2 0x852 PUSH8 0x8E6C815DA93FF8C9 PUSH1 0xC0 SHL PUSH2 0x10CE JUMP JUMPDEST PUSH2 0x866 PUSH8 0x4AC26E7FAB201AA1 PUSH1 0xC0 SHL PUSH2 0x10CE JUMP JUMPDEST PUSH1 0x1 PUSH1 0x0 CALLER PUSH20 0xFFFFFFFFFFFFFFFFFFFFFFFFFFFFFFFFFFFFFFFF AND PUSH20 0xFFFFFFFFFFFFFFFFFFFFFFFFFFFFFFFFFFFFFFFF AND DUP2 MSTORE PUSH1 0x20 ADD SWAP1 DUP2 MSTORE PUSH1 0x20 ADD PUSH1 0x0 KECCAK256 PUSH1 0x0 SWAP1 SLOAD SWAP1 PUSH2 0x100 EXP SWAP1 DIV PUSH1 0xFF AND PUSH2 0x92E JUMPI PUSH2 0x8CB PUSH8 0x3C822054BF084079 PUSH1 0xC0 SHL PUSH2 0x10CE JUMP JUMPDEST PUSH2 0x8DF PUSH8 0xD047FF59C776AF83 PUSH1 0xC0 SHL PUSH2 0x10CE JUMP JUMPDEST PUSH2 0x8F3 PUSH8 0xC8377C5016F65DA9 PUSH1 0xC0 SHL PUSH2 0x10CE JUMP JUMPDEST PUSH1 0x40 MLOAD PUSH32 0x8C379A000000000000000000000000000000000000000000000000000000000 DUP2 MSTORE PUSH1 0x4 ADD PUSH2 0x925 SWAP1 PUSH2 0x17A0 JUMP JUMPDEST PUSH1 0x40 MLOAD DUP1 SWAP2 SUB SWAP1 REVERT JUMPDEST PUSH2 0x942 PUSH8 0xC1AD9B6840B20D11 PUSH1 0xC0 SHL PUSH2 0x10CE JUMP JUMPDEST PUSH2 0x956 PUSH8 0x1A1D3FF8037C404F PUSH1 0xC0 SHL PUSH2 0x10CE JUMP JUMPDEST PUSH2 0x96A PUSH8 0xD70B8724D660F3C9 PUSH1 0xC0 SHL PUSH2 0x10CE JUMP JUMPDEST PUSH2 0x97E PUSH8 0x81FEE0307AD189E8 PUSH1 0xC0 SHL PUSH2 0x10CE JUMP JUMPDEST PUSH2 0x992 PUSH8 0xE7432814378B7DA8 PUSH1 0xC0 SHL PUSH2 0x10CE JUMP JUMPDEST PUSH2 0x9A6 PUSH8 0xF27D0551E600876E PUSH1 0xC0 SHL PUSH2 0x10CE JUMP JUMPDEST PUSH1 0x1 DUP1 DUP2 GT ISZERO PUSH2 0x9B9 JUMPI PUSH2 0x9B8 PUSH2 0x1512 JUMP JUMPDEST JUMPDEST PUSH1 0x2 PUSH1 0x0 DUP4 DUP2 MSTORE PUSH1 0x20 ADD SWAP1 DUP2 MSTORE PUSH1 0x20 ADD PUSH1 0x0 KECCAK256 PUSH1 0x5 ADD PUSH1 0x0 SWAP1 SLOAD SWAP1 PUSH2 0x100 EXP SWAP1 DIV PUSH1 0xFF AND PUSH1 0x1 DUP2 GT ISZERO PUSH2 0x9EF JUMPI PUSH2 0x9EE PUSH2 0x1512 JUMP JUMPDEST JUMPDEST SUB PUSH2 0xA6B JUMPI PUSH2 0xA08 PUSH8 0x4AE0BCDCE2988D0D PUSH1 0xC0 SHL PUSH2 0x10CE JUMP JUMPDEST PUSH2 0xA1C PUSH8 0xB3E5F367C28DBA63 PUSH1 0xC0 SHL PUSH2 0x10CE JUMP JUMPDEST PUSH2 0xA30 PUSH8 0x162089EAB83FAE4 PUSH1 0xC0 SHL PUSH2 0x10CE JUMP JUMPDEST PUSH1 0x40 MLOAD PUSH32 0x8C379A000000000000000000000000000000000000000000000000000000000 DUP2 MSTORE PUSH1 0x4 ADD PUSH2 0xA62 SWAP1 PUSH2 0x1901 JUMP JUMPDEST PUSH1 0x40 MLOAD DUP1 SWAP2 SUB SWAP1 REVERT JUMPDEST PUSH2 0xA7F PUSH8 0x9BC65C9DDE73035B PUSH1 0xC0 SHL PUSH2 0x10CE JUMP JUMPDEST PUSH2 0xA93 PUSH8 0xFC7697A31C895363 PUSH1 0xC0 SHL PUSH2 0x10CE JUMP JUMPDEST PUSH2 0xAA7 PUSH8 0x5BE84F3FADCE9520 PUSH1 0xC0 SHL PUSH2 0x10CE JUMP JUMPDEST PUSH1 0x0 JUMPDEST PUSH1 0x2 PUSH1 0x0 DUP4 DUP2 MSTORE PUSH1 0x20 ADD SWAP1 DUP2 MSTORE PUSH1 0x20 ADD PUSH1 0x0 KECCAK256 PUSH1 0x4 ADD DUP1 SLOAD SWAP1 POP DUP2 LT ISZERO PUSH2 0xC10 JUMPI PUSH2 0xADF PUSH8 0x60D4438F6D56BD5C PUSH1 0xC0 SHL PUSH2 0x10CE JUMP JUMPDEST PUSH2 0xAF3 PUSH8 0xD80FA4683917F35A PUSH1 0xC0 SHL PUSH2 0x10CE JUMP JUMPDEST CALLER PUSH20 0xFFFFFFFFFFFFFFFFFFFFFFFFFFFFFFFFFFFFFFFF AND PUSH1 0x2 PUSH1 0x0 DUP5 DUP2 MSTORE PUSH1 0x20 ADD SWAP1 DUP2 MSTORE PUSH1 0x20 ADD PUSH1 0x0 KECCAK256 PUSH1 0x4 ADD DUP3 DUP2 SLOAD DUP2 LT PUSH2 0xB32 JUMPI PUSH2 0xB31 PUSH2 0x17EF JUMP JUMPDEST JUMPDEST SWAP1 PUSH1 0x0 MSTORE PUSH1 0x20 PUSH1 0x0 KECCAK256 ADD PUSH1 0x0 SWAP1 SLOAD SWAP1 PUSH2 0x100 EXP SWAP1 DIV PUSH20 0xFFFFFFFFFFFFFFFFFFFFFFFFFFFFFFFFFFFFFFFF AND PUSH20 0xFFFFFFFFFFFFFFFFFFFFFFFFFFFFFFFFFFFFFFFF AND SUB PUSH2 0xBEF JUMPI PUSH2 0xB8C PUSH8 0x9B71F2A4B0F12744 PUSH1 0xC0 SHL PUSH2 0x10CE JUMP JUMPDEST PUSH2 0xBA0 PUSH8 0xF1546FD8D596B63F PUSH1 0xC0 SHL PUSH2 0x10CE JUMP JUMPDEST PUSH2 0xBB4 PUSH8 0x42C26B51FDF757AE PUSH1 0xC0 SHL PUSH2 0x10CE JUMP JUMPDEST PUSH1 0x40 MLOAD PUSH32 0x8C379A000000000000000000000000000000000000000000000000000000000 DUP2 MSTORE PUSH1 0x4 ADD PUSH2 0xBE6 SWAP1 PUSH2 0x196D JUMP JUMPDEST PUSH1 0x40 MLOAD DUP1 SWAP2 SUB SWAP1 REVERT JUMPDEST PUSH2 0xC03 PUSH8 0xADD848F8496850C0 PUSH1 0xC0 SHL PUSH2 0x10CE JUMP JUMPDEST DUP1 DUP1 PUSH1 0x1 ADD SWAP2 POP POP PUSH2 0xAAA JUMP JUMPDEST POP PUSH2 0xC25 PUSH8 0xA3226106218D9DEB PUSH1 0xC0 SHL PUSH2 0x10CE JUMP JUMPDEST PUSH1 0x1 PUSH1 0x2 PUSH1 0x0 DUP4 DUP2 MSTORE PUSH1 0x20 ADD SWAP1 DUP2 MSTORE PUSH1 0x20 ADD PUSH1 0x0 KECCAK256 PUSH1 0x3 ADD SLOAD PUSH2 0xC48 SWAP2 SWAP1 PUSH2 0x184D JUMP JUMPDEST PUSH1 0x2 PUSH1 0x0 DUP4 DUP2 MSTORE PUSH1 0x20 ADD SWAP1 DUP2 MSTORE PUSH1 0x20 ADD PUSH1 0x0 KECCAK256 PUSH1 0x3 ADD DUP2 SWAP1 SSTORE POP PUSH2 0xC76 PUSH8 0x6FE92B78260C5706 PUSH1 0xC0 SHL PUSH2 0x10CE JUMP JUMPDEST PUSH2 0xC8A PUSH8 0x649754D0F3D98AFE PUSH1 0xC0 SHL PUSH2 0x10CE JUMP JUMPDEST PUSH1 0x2 PUSH1 0x0 DUP3 DUP2 MSTORE PUSH1 0x20 ADD SWAP1 DUP2 MSTORE PUSH1 0x20 ADD PUSH1 0x0 KECCAK256 PUSH1 0x4 ADD CALLER SWAP1 DUP1 PUSH1 0x1 DUP2 SLOAD ADD DUP1 DUP3 SSTORE DUP1 SWAP2 POP POP PUSH1 0x1 SWAP1 SUB SWAP1 PUSH1 0x0 MSTORE PUSH1 0x20 PUSH1 0x0 KECCAK256 ADD PUSH1 0x0 SWAP1 SWAP2 SWAP1 SWAP2 SWAP1 SWAP2 PUSH2 0x100 EXP DUP2 SLOAD DUP2 PUSH20 0xFFFFFFFFFFFFFFFFFFFFFFFFFFFFFFFFFFFFFFFF MUL NOT AND SWAP1 DUP4 PUSH20 0xFFFFFFFFFFFFFFFFFFFFFFFFFFFFFFFFFFFFFFFF AND MUL OR SWAP1 SSTORE POP PUSH2 0xD15 PUSH8 0xBC4B1CBA48E14918 PUSH1 0xC0 SHL PUSH2 0x10CE JUMP JUMPDEST PUSH2 0xD29 PUSH8 0x2EB5F29F6426CA50 PUSH1 0xC0 SHL PUSH2 0x10CE JUMP JUMPDEST PUSH1 0x0 SLOAD PUSH1 0x2 PUSH1 0x0 DUP4 DUP2 MSTORE PUSH1 0x20 ADD SWAP1 DUP2 MSTORE PUSH1 0x20 ADD PUSH1 0x0 KECCAK256 PUSH1 0x3 ADD SLOAD LT PUSH2 0xE32 JUMPI PUSH2 0xD5C PUSH8 0x5E109C02FCC7404E PUSH1 0xC0 SHL PUSH2 0x10CE JUMP JUMPDEST PUSH2 0xD70 PUSH8 0xDB2779B91A0E9FA3 PUSH1 0xC0 SHL PUSH2 0x10CE JUMP JUMPDEST PUSH2 0xD84 PUSH8 0xB7950DFCD2329665 PUSH1 0xC0 SHL PUSH2 0x10CE JUMP JUMPDEST PUSH2 0xDDA PUSH1 0x2 PUSH1 0x0 DUP4 DUP2 MSTORE PUSH1 0x20 ADD SWAP1 DUP2 MSTORE PUSH1 0x20 ADD PUSH1 0x0 KECCAK256 PUSH1 0x0 ADD PUSH1 0x0 SWAP1 SLOAD SWAP1 PUSH2 0x100 EXP SWAP1 DIV PUSH20 0xFFFFFFFFFFFFFFFFFFFFFFFFFFFFFFFFFFFFFFFF AND PUSH1 0x2 PUSH1 0x0 DUP5 DUP2 MSTORE PUSH1 0x20 ADD SWAP1 DUP2 MSTORE PUSH1 0x20 ADD PUSH1 0x0 KECCAK256 PUSH1 0x1 ADD SLOAD PUSH2 0x10D1 JUMP JUMPDEST PUSH2 0xDEE PUSH8 0x1EC830DCB1FB46E1 PUSH1 0xC0 SHL PUSH2 0x10CE JUMP JUMPDEST PUSH1 0x1 PUSH1 0x2 PUSH1 0x0 DUP4 DUP2 MSTORE PUSH1 0x20 ADD SWAP1 DUP2 MSTORE PUSH1 0x20 ADD PUSH1 0x0 KECCAK256 PUSH1 0x5 ADD PUSH1 0x0 PUSH2 0x100 EXP DUP2 SLOAD DUP2 PUSH1 0xFF MUL NOT AND SWAP1 DUP4 PUSH1 0x1 DUP2 GT ISZERO PUSH2 0xE28 JUMPI PUSH2 0xE27 PUSH2 0x1512 JUMP JUMPDEST JUMPDEST MUL OR SWAP1 SSTORE POP PUSH2 0xE47 JUMP JUMPDEST PUSH2 0xE46 PUSH8 0xBB5E84120ECA2452 PUSH1 0xC0 SHL PUSH2 0x10CE JUMP JUMPDEST JUMPDEST POP JUMP JUMPDEST PUSH2 0xE52 PUSH2 0x11E2 JUMP JUMPDEST PUSH2 0xE66 PUSH8 0x26C5132DEBCFFB60 PUSH1 0xC0 SHL PUSH2 0x10CE JUMP JUMPDEST PUSH2 0xE7A PUSH8 0x93617B067525740E PUSH1 0xC0 SHL PUSH2 0x10CE JUMP JUMPDEST PUSH2 0xE8E PUSH8 0x88FA936339064990 PUSH1 0xC0 SHL PUSH2 0x10CE JUMP JUMPDEST PUSH1 0x2 PUSH1 0x0 DUP4 DUP2 MSTORE PUSH1 0x20 ADD SWAP1 DUP2 MSTORE PUSH1 0x20 ADD PUSH1 0x0 KECCAK256 PUSH1 0x40 MLOAD DUP1 PUSH1 0xC0 ADD PUSH1 0x40 MSTORE SWAP1 DUP2 PUSH1 0x0 DUP3 ADD PUSH1 0x0 SWAP1 SLOAD SWAP1 PUSH2 0x100 EXP SWAP1 DIV PUSH20 0xFFFFFFFFFFFFFFFFFFFFFFFFFFFFFFFFFFFFFFFF AND PUSH20 0xFFFFFFFFFFFFFFFFFFFFFFFFFFFFFFFFFFFFFFFF AND PUSH20 0xFFFFFFFFFFFFFFFFFFFFFFFFFFFFFFFFFFFFFFFF AND DUP2 MSTORE PUSH1 0x20 ADD PUSH1 0x1 DUP3 ADD SLOAD DUP2 MSTORE PUSH1 0x20 ADD PUSH1 0x2 DUP3 ADD PUSH1 0x0 SWAP1 SLOAD SWAP1 PUSH2 0x100 EXP SWAP1 DIV PUSH20 0xFFFFFFFFFFFFFFFFFFFFFFFFFFFFFFFFFFFFFFFF AND PUSH20 0xFFFFFFFFFFFFFFFFFFFFFFFFFFFFFFFFFFFFFFFF AND PUSH20 0xFFFFFFFFFFFFFFFFFFFFFFFFFFFFFFFFFFFFFFFF AND DUP2 MSTORE PUSH1 0x20 ADD PUSH1 0x3 DUP3 ADD SLOAD DUP2 MSTORE PUSH1 0x20 ADD PUSH1 0x4 DUP3 ADD DUP1 SLOAD DUP1 PUSH1 0x20 MUL PUSH1 0x20 ADD PUSH1 0x40 MLOAD SWAP1 DUP2 ADD PUSH1 0x40 MSTORE DUP1 SWAP3 SWAP2 SWAP1 DUP2 DUP2 MSTORE PUSH1 0x20 ADD DUP3 DUP1 SLOAD DUP1 ISZERO PUSH2 0xFF1 JUMPI PUSH1 0x20 MUL DUP3 ADD SWAP2 SWAP1 PUSH1 0x0 MSTORE PUSH1 0x20 PUSH1 0x0 KECCAK256 SWAP1 JUMPDEST DUP2 PUSH1 0x0 SWAP1 SLOAD SWAP1 PUSH2 0x100 EXP SWAP1 DIV PUSH20 0xFFFFFFFFFFFFFFFFFFFFFFFFFFFFFFFFFFFFFFFF AND PUSH20 0xFFFFFFFFFFFFFFFFFFFFFFFFFFFFFFFFFFFFFFFF AND DUP2 MSTORE PUSH1 0x20 ADD SWAP1 PUSH1 0x1 ADD SWAP1 DUP1 DUP4 GT PUSH2 0xFA7 JUMPI JUMPDEST POP POP POP POP POP DUP2 MSTORE PUSH1 0x20 ADD PUSH1 0x5 DUP3 ADD PUSH1 0x0 SWAP1 SLOAD SWAP1 PUSH2 0x100 EXP SWAP1 DIV PUSH1 0xFF AND PUSH1 0x1 DUP2 GT ISZERO PUSH2 0x101F JUMPI PUSH2 0x101E PUSH2 0x1512 JUMP JUMPDEST JUMPDEST PUSH1 0x1 DUP2 GT ISZERO PUSH2 0x1031 JUMPI PUSH2 0x1030 PUSH2 0x1512 JUMP JUMPDEST JUMPDEST DUP2 MSTORE POP POP SWAP1 POP SWAP2 SWAP1 POP JUMP JUMPDEST PUSH1 0x0 PUSH2 0x1052 PUSH8 0x2125D182A8E93501 PUSH1 0xC0 SHL PUSH2 0x10CE JUMP JUMPDEST PUSH2 0x1066 PUSH8 0xF2C4174DC7AA64F5 PUSH1 0xC0 SHL PUSH2 0x10CE JUMP JUMPDEST PUSH2 0x107A PUSH8 0x24BE3825A13B7858 PUSH1 0xC0 SHL PUSH2 0x10CE JUMP JUMPDEST PUSH1 0x1 PUSH1 0x0 DUP4 PUSH20 0xFFFFFFFFFFFFFFFFFFFFFFFFFFFFFFFFFFFFFFFF AND PUSH20 0xFFFFFFFFFFFFFFFFFFFFFFFFFFFFFFFFFFFFFFFF AND DUP2 MSTORE PUSH1 0x20 ADD SWAP1 DUP2 MSTORE PUSH1 0x20 ADD PUSH1 0x0 KECCAK256 PUSH1 0x0 SWAP1 SLOAD SWAP1 PUSH2 0x100 EXP SWAP1 DIV PUSH1 0xFF AND SWAP1 POP SWAP2 SWAP1 POP JUMP JUMPDEST POP JUMP JUMPDEST PUSH2 0x10E5 PUSH8 0x8035EBAD9FF57885 PUSH1 0xC0 SHL PUSH2 0x10CE JUMP JUMPDEST PUSH2 0x10F9 PUSH8 0x403BA33E9848E91F PUSH1 0xC0 SHL PUSH2 0x10CE JUMP JUMPDEST PUSH2 0x110D PUSH8 0x4B9A015E0032F514 PUSH1 0xC0 SHL PUSH2 0x10CE JUMP JUMPDEST DUP2 PUSH20 0xFFFFFFFFFFFFFFFFFFFFFFFFFFFFFFFFFFFFFFFF AND PUSH2 0x8FC DUP3 SWAP1 DUP2 ISZERO MUL SWAP1 PUSH1 0x40 MLOAD PUSH1 0x0 PUSH1 0x40 MLOAD DUP1 DUP4 SUB DUP2 DUP6 DUP9 DUP9 CALL SWAP4 POP POP POP POP ISZERO DUP1 ISZERO PUSH2 0x1153 JUMPI RETURNDATASIZE PUSH1 0x0 DUP1 RETURNDATACOPY RETURNDATASIZE PUSH1 0x0 REVERT JUMPDEST POP POP POP JUMP JUMPDEST DUP3 DUP1 SLOAD DUP3 DUP3 SSTORE SWAP1 PUSH1 0x0 MSTORE PUSH1 0x20 PUSH1 0x0 KECCAK256 SWAP1 DUP2 ADD SWAP3 DUP3 ISZERO PUSH2 0x11D1 JUMPI SWAP2 PUSH1 0x20 MUL DUP3 ADD JUMPDEST DUP3 DUP2 GT ISZERO PUSH2 0x11D0 JUMPI DUP3 MLOAD DUP3 PUSH1 0x0 PUSH2 0x100 EXP DUP2 SLOAD DUP2 PUSH20 0xFFFFFFFFFFFFFFFFFFFFFFFFFFFFFFFFFFFFFFFF MUL NOT AND SWAP1 DUP4 PUSH20 0xFFFFFFFFFFFFFFFFFFFFFFFFFFFFFFFFFFFFFFFF AND MUL OR SWAP1 SSTORE POP SWAP2 PUSH1 0x20 ADD SWAP2 SWAP1 PUSH1 0x1 ADD SWAP1 PUSH2 0x1178 JUMP JUMPDEST JUMPDEST POP SWAP1 POP PUSH2 0x11DE SWAP2 SWAP1 PUSH2 0x1256 JUMP JUMPDEST POP SWAP1 JUMP JUMPDEST PUSH1 0x40 MLOAD DUP1 PUSH1 0xC0 ADD PUSH1 0x40 MSTORE DUP1 PUSH1 0x0 PUSH20 0xFFFFFFFFFFFFFFFFFFFFFFFFFFFFFFFFFFFFFFFF AND DUP2 MSTORE PUSH1 0x20 ADD PUSH1 0x0 DUP2 MSTORE PUSH1 0x20 ADD PUSH1 0x0 PUSH20 0xFFFFFFFFFFFFFFFFFFFFFFFFFFFFFFFFFFFFFFFF AND DUP2 MSTORE PUSH1 0x20 ADD PUSH1 0x0 DUP2 MSTORE PUSH1 0x20 ADD PUSH1 0x60 DUP2 MSTORE PUSH1 0x20 ADD PUSH1 0x0 PUSH1 0x1 DUP2 GT ISZERO PUSH2 0x1250 JUMPI PUSH2 0x124F PUSH2 0x1512 JUMP JUMPDEST JUMPDEST DUP2 MSTORE POP SWAP1 JUMP JUMPDEST JUMPDEST DUP1 DUP3 GT ISZERO PUSH2 0x126F JUMPI PUSH1 0x0 DUP2 PUSH1 0x0 SWAP1 SSTORE POP PUSH1 0x1 ADD PUSH2 0x1257 JUMP JUMPDEST POP SWAP1 JUMP JUMPDEST PUSH1 0x0 DUP1 REVERT JUMPDEST PUSH1 0x0 PUSH20 0xFFFFFFFFFFFFFFFFFFFFFFFFFFFFFFFFFFFFFFFF DUP3 AND SWAP1 POP SWAP2 SWAP1 POP JUMP JUMPDEST PUSH1 0x0 PUSH2 0x12A3 DUP3 PUSH2 0x1278 JUMP JUMPDEST SWAP1 POP SWAP2 SWAP1 POP JUMP JUMPDEST PUSH2 0x12B3 DUP2 PUSH2 0x1298 JUMP JUMPDEST DUP2 EQ PUSH2 0x12BE JUMPI PUSH1 0x0 DUP1 REVERT JUMPDEST POP JUMP JUMPDEST PUSH1 0x0 DUP2 CALLDATALOAD SWAP1 POP PUSH2 0x12D0 DUP2 PUSH2 0x12AA JUMP JUMPDEST SWAP3 SWAP2 POP POP JUMP JUMPDEST PUSH1 0x0 DUP2 ISZERO ISZERO SWAP1 POP SWAP2 SWAP1 POP JUMP JUMPDEST PUSH2 0x12EB DUP2 PUSH2 0x12D6 JUMP JUMPDEST DUP2 EQ PUSH2 0x12F6 JUMPI PUSH1 0x0 DUP1 REVERT JUMPDEST POP JUMP JUMPDEST PUSH1 0x0 DUP2 CALLDATALOAD SWAP1 POP PUSH2 0x1308 DUP2 PUSH2 0x12E2 JUMP JUMPDEST SWAP3 SWAP2 POP POP JUMP JUMPDEST PUSH1 0x0 DUP1 PUSH1 0x40 DUP4 DUP6 SUB SLT ISZERO PUSH2 0x1325 JUMPI PUSH2 0x1324 PUSH2 0x1273 JUMP JUMPDEST JUMPDEST PUSH1 0x0 PUSH2 0x1333 DUP6 DUP3 DUP7 ADD PUSH2 0x12C1 JUMP JUMPDEST SWAP3 POP POP PUSH1 0x20 PUSH2 0x1344 DUP6 DUP3 DUP7 ADD PUSH2 0x12F9 JUMP JUMPDEST SWAP2 POP POP SWAP3 POP SWAP3 SWAP1 POP JUMP JUMPDEST PUSH1 0x0 DUP2 SWAP1 POP SWAP2 SWAP1 POP JUMP JUMPDEST PUSH2 0x1361 DUP2 PUSH2 0x134E JUMP JUMPDEST DUP2 EQ PUSH2 0x136C JUMPI PUSH1 0x0 DUP1 REVERT JUMPDEST POP JUMP JUMPDEST PUSH1 0x0 DUP2 CALLDATALOAD SWAP1 POP PUSH2 0x137E DUP2 PUSH2 0x1358 JUMP JUMPDEST SWAP3 SWAP2 POP POP JUMP JUMPDEST PUSH1 0x0 DUP1 PUSH1 0x40 DUP4 DUP6 SUB SLT ISZERO PUSH2 0x139B JUMPI PUSH2 0x139A PUSH2 0x1273 JUMP JUMPDEST JUMPDEST PUSH1 0x0 PUSH2 0x13A9 DUP6 DUP3 DUP7 ADD PUSH2 0x12C1 JUMP JUMPDEST SWAP3 POP POP PUSH1 0x20 PUSH2 0x13BA DUP6 DUP3 DUP7 ADD PUSH2 0x136F JUMP JUMPDEST SWAP2 POP POP SWAP3 POP SWAP3 SWAP1 POP JUMP JUMPDEST PUSH2 0x13CD DUP2 PUSH2 0x134E JUMP JUMPDEST DUP3 MSTORE POP POP JUMP JUMPDEST PUSH1 0x0 PUSH1 0x20 DUP3 ADD SWAP1 POP PUSH2 0x13E8 PUSH1 0x0 DUP4 ADD DUP5 PUSH2 0x13C4 JUMP JUMPDEST SWAP3 SWAP2 POP POP JUMP JUMPDEST PUSH2 0x13F7 DUP2 PUSH2 0x1298 JUMP JUMPDEST DUP3 MSTORE POP POP JUMP JUMPDEST PUSH1 0x0 PUSH1 0x20 DUP3 ADD SWAP1 POP PUSH2 0x1412 PUSH1 0x0 DUP4 ADD DUP5 PUSH2 0x13EE JUMP JUMPDEST SWAP3 SWAP2 POP POP JUMP JUMPDEST PUSH1 0x0 PUSH1 0x20 DUP3 DUP5 SUB SLT ISZERO PUSH2 0x142E JUMPI PUSH2 0x142D PUSH2 0x1273 JUMP JUMPDEST JUMPDEST PUSH1 0x0 PUSH2 0x143C DUP5 DUP3 DUP6 ADD PUSH2 0x136F JUMP JUMPDEST SWAP2 POP POP SWAP3 SWAP2 POP POP JUMP JUMPDEST PUSH2 0x144E DUP2 PUSH2 0x1298 JUMP JUMPDEST DUP3 MSTORE POP POP JUMP JUMPDEST PUSH2 0x145D DUP2 PUSH2 0x134E JUMP JUMPDEST DUP3 MSTORE POP POP JUMP JUMPDEST PUSH1 0x0 DUP2 MLOAD SWAP1 POP SWAP2 SWAP1 POP JUMP JUMPDEST PUSH1 0x0 DUP3 DUP3 MSTORE PUSH1 0x20 DUP3 ADD SWAP1 POP SWAP3 SWAP2 POP POP JUMP JUMPDEST PUSH1 0x0 DUP2 SWAP1 POP PUSH1 0x20 DUP3 ADD SWAP1 POP SWAP2 SWAP1 POP JUMP JUMPDEST PUSH1 0x0 PUSH2 0x149B DUP4 DUP4 PUSH2 0x1445 JUMP JUMPDEST PUSH1 0x20 DUP4 ADD SWAP1 POP SWAP3 SWAP2 POP POP JUMP JUMPDEST PUSH1 0x0 PUSH1 0x20 DUP3 ADD SWAP1 POP SWAP2 SWAP1 POP JUMP JUMPDEST PUSH1 0x0 PUSH2 0x14BF DUP3 PUSH2 0x1463 JUMP JUMPDEST PUSH2 0x14C9 DUP2 DUP6 PUSH2 0x146E JUMP JUMPDEST SWAP4 POP PUSH2 0x14D4 DUP4 PUSH2 0x147F JUMP JUMPDEST DUP1 PUSH1 0x0 JUMPDEST DUP4 DUP2 LT ISZERO PUSH2 0x1505 JUMPI DUP2 MLOAD PUSH2 0x14EC DUP9 DUP3 PUSH2 0x148F JUMP JUMPDEST SWAP8 POP PUSH2 0x14F7 DUP4 PUSH2 0x14A7 JUMP JUMPDEST SWAP3 POP POP PUSH1 0x1 DUP2 ADD SWAP1 POP PUSH2 0x14D8 JUMP JUMPDEST POP DUP6 SWAP4 POP POP POP POP SWAP3 SWAP2 POP POP JUMP JUMPDEST PUSH32 0x4E487B7100000000000000000000000000000000000000000000000000000000 PUSH1 0x0 MSTORE PUSH1 0x21 PUSH1 0x4 MSTORE PUSH1 0x24 PUSH1 0x0 REVERT JUMPDEST PUSH1 0x2 DUP2 LT PUSH2 0x1552 JUMPI PUSH2 0x1551 PUSH2 0x1512 JUMP JUMPDEST JUMPDEST POP JUMP JUMPDEST PUSH1 0x0 DUP2 SWAP1 POP PUSH2 0x1563 DUP3 PUSH2 0x1541 JUMP JUMPDEST SWAP2 SWAP1 POP JUMP JUMPDEST PUSH1 0x0 PUSH2 0x1573 DUP3 PUSH2 0x1555 JUMP JUMPDEST SWAP1 POP SWAP2 SWAP1 POP JUMP JUMPDEST PUSH2 0x1583 DUP2 PUSH2 0x1568 JUMP JUMPDEST DUP3 MSTORE POP POP JUMP JUMPDEST PUSH1 0x0 PUSH1 0xC0 DUP4 ADD PUSH1 0x0 DUP4 ADD MLOAD PUSH2 0x15A1 PUSH1 0x0 DUP7 ADD DUP3 PUSH2 0x1445 JUMP JUMPDEST POP PUSH1 0x20 DUP4 ADD MLOAD PUSH2 0x15B4 PUSH1 0x20 DUP7 ADD DUP3 PUSH2 0x1454 JUMP JUMPDEST POP PUSH1 0x40 DUP4 ADD MLOAD PUSH2 0x15C7 PUSH1 0x40 DUP7 ADD DUP3 PUSH2 0x1445 JUMP JUMPDEST POP PUSH1 0x60 DUP4 ADD MLOAD PUSH2 0x15DA PUSH1 0x60 DUP7 ADD DUP3 PUSH2 0x1454 JUMP JUMPDEST POP PUSH1 0x80 DUP4 ADD MLOAD DUP5 DUP3 SUB PUSH1 0x80 DUP7 ADD MSTORE PUSH2 0x15F2 DUP3 DUP3 PUSH2 0x14B4 JUMP JUMPDEST SWAP2 POP POP PUSH1 0xA0 DUP4 ADD MLOAD PUSH2 0x1607 PUSH1 0xA0 DUP7 ADD DUP3 PUSH2 0x157A JUMP JUMPDEST POP DUP1 SWAP2 POP POP SWAP3 SWAP2 POP POP JUMP JUMPDEST PUSH1 0x0 PUSH1 0x20 DUP3 ADD SWAP1 POP DUP2 DUP2 SUB PUSH1 0x0 DUP4 ADD MSTORE PUSH2 0x162C DUP2 DUP5 PUSH2 0x1589 JUMP JUMPDEST SWAP1 POP SWAP3 SWAP2 POP POP JUMP JUMPDEST PUSH1 0x0 PUSH1 0x20 DUP3 DUP5 SUB SLT ISZERO PUSH2 0x164A JUMPI PUSH2 0x1649 PUSH2 0x1273 JUMP JUMPDEST JUMPDEST PUSH1 0x0 PUSH2 0x1658 DUP5 DUP3 DUP6 ADD PUSH2 0x12C1 JUMP JUMPDEST SWAP2 POP POP SWAP3 SWAP2 POP POP JUMP JUMPDEST PUSH2 0x166A DUP2 PUSH2 0x12D6 JUMP JUMPDEST DUP3 MSTORE POP POP JUMP JUMPDEST PUSH1 0x0 PUSH1 0x20 DUP3 ADD SWAP1 POP PUSH2 0x1685 PUSH1 0x0 DUP4 ADD DUP5 PUSH2 0x1661 JUMP JUMPDEST SWAP3 SWAP2 POP POP JUMP JUMPDEST PUSH1 0x0 DUP3 DUP3 MSTORE PUSH1 0x20 DUP3 ADD SWAP1 POP SWAP3 SWAP2 POP POP JUMP JUMPDEST PUSH32 0x6F6E6C79206F776E65722063616E206D616B652074686973207472616E736163 PUSH1 0x0 DUP3 ADD MSTORE PUSH32 0x74696F6E00000000000000000000000000000000000000000000000000000000 PUSH1 0x20 DUP3 ADD MSTORE POP JUMP JUMPDEST PUSH1 0x0 PUSH2 0x16F8 PUSH1 0x24 DUP4 PUSH2 0x168B JUMP JUMPDEST SWAP2 POP PUSH2 0x1703 DUP3 PUSH2 0x169C JUMP JUMPDEST PUSH1 0x40 DUP3 ADD SWAP1 POP SWAP2 SWAP1 POP JUMP JUMPDEST PUSH1 0x0 PUSH1 0x20 DUP3 ADD SWAP1 POP DUP2 DUP2 SUB PUSH1 0x0 DUP4 ADD MSTORE PUSH2 0x1727 DUP2 PUSH2 0x16EB JUMP JUMPDEST SWAP1 POP SWAP2 SWAP1 POP JUMP JUMPDEST PUSH32 0x6F6E6C792061207369676E65722063616E206D616B652074686973207472616E PUSH1 0x0 DUP3 ADD MSTORE PUSH32 0x73616374696F6E00000000000000000000000000000000000000000000000000 PUSH1 0x20 DUP3 ADD MSTORE POP JUMP JUMPDEST PUSH1 0x0 PUSH2 0x178A PUSH1 0x27 DUP4 PUSH2 0x168B JUMP JUMPDEST SWAP2 POP PUSH2 0x1795 DUP3 PUSH2 0x172E JUMP JUMPDEST PUSH1 0x40 DUP3 ADD SWAP1 POP SWAP2 SWAP1 POP JUMP JUMPDEST PUSH1 0x0 PUSH1 0x20 DUP3 ADD SWAP1 POP DUP2 DUP2 SUB PUSH1 0x0 DUP4 ADD MSTORE PUSH2 0x17B9 DUP2 PUSH2 0x177D JUMP JUMPDEST SWAP1 POP SWAP2 SWAP1 POP JUMP JUMPDEST PUSH32 0x4E487B7100000000000000000000000000000000000000000000000000000000 PUSH1 0x0 MSTORE PUSH1 0x41 PUSH1 0x4 MSTORE PUSH1 0x24 PUSH1 0x0 REVERT JUMPDEST PUSH32 0x4E487B7100000000000000000000000000000000000000000000000000000000 PUSH1 0x0 MSTORE PUSH1 0x32 PUSH1 0x4 MSTORE PUSH1 0x24 PUSH1 0x0 REVERT JUMPDEST PUSH32 0x4E487B7100000000000000000000000000000000000000000000000000000000 PUSH1 0x0 MSTORE PUSH1 0x11 PUSH1 0x4 MSTORE PUSH1 0x24 PUSH1 0x0 REVERT JUMPDEST PUSH1 0x0 PUSH2 0x1858 DUP3 PUSH2 0x134E JUMP JUMPDEST SWAP2 POP PUSH2 0x1863 DUP4 PUSH2 0x134E JUMP JUMPDEST SWAP3 POP DUP3 DUP3 ADD SWAP1 POP DUP1 DUP3 GT ISZERO PUSH2 0x187B JUMPI PUSH2 0x187A PUSH2 0x181E JUMP JUMPDEST JUMPDEST SWAP3 SWAP2 POP POP JUMP JUMPDEST PUSH1 0x0 PUSH2 0x188C DUP3 PUSH2 0x134E JUMP JUMPDEST SWAP2 POP PUSH2 0x1897 DUP4 PUSH2 0x134E JUMP JUMPDEST SWAP3 POP DUP3 DUP3 SUB SWAP1 POP DUP2 DUP2 GT ISZERO PUSH2 0x18AF JUMPI PUSH2 0x18AE PUSH2 0x181E JUMP JUMPDEST JUMPDEST SWAP3 SWAP2 POP POP JUMP JUMPDEST PUSH32 0x50726F706F73616C20686173206265656E20617070726F766564000000000000 PUSH1 0x0 DUP3 ADD MSTORE POP JUMP JUMPDEST PUSH1 0x0 PUSH2 0x18EB PUSH1 0x1A DUP4 PUSH2 0x168B JUMP JUMPDEST SWAP2 POP PUSH2 0x18F6 DUP3 PUSH2 0x18B5 JUMP JUMPDEST PUSH1 0x20 DUP3 ADD SWAP1 POP SWAP2 SWAP1 POP JUMP JUMPDEST PUSH1 0x0 PUSH1 0x20 DUP3 ADD SWAP1 POP DUP2 DUP2 SUB PUSH1 0x0 DUP4 ADD MSTORE PUSH2 0x191A DUP2 PUSH2 0x18DE JUMP JUMPDEST SWAP1 POP SWAP2 SWAP1 POP JUMP JUMPDEST PUSH32 0x596F75277665207369676E656420746869732070726F706F73616C0000000000 PUSH1 0x0 DUP3 ADD MSTORE POP JUMP JUMPDEST PUSH1 0x0 PUSH2 0x1957 PUSH1 0x1B DUP4 PUSH2 0x168B JUMP JUMPDEST SWAP2 POP PUSH2 0x1962 DUP3 PUSH2 0x1921 JUMP JUMPDEST PUSH1 0x20 DUP3 ADD SWAP1 POP SWAP2 SWAP1 POP JUMP JUMPDEST PUSH1 0x0 PUSH1 0x20 DUP3 ADD SWAP1 POP DUP2 DUP2 SUB PUSH1 0x0 DUP4 ADD MSTORE PUSH2 0x1986 DUP2 PUSH2 0x194A JUMP JUMPDEST SWAP1 POP SWAP2 SWAP1 POP JUMP INVALID LOG2 PUSH5 0x6970667358 0x22 SLT KECCAK256 0xF6 ORIGIN REVERT DUP14 SWAP6 SMOD RETURNDATASIZE BLOBHASH PUSH8 0xDB2362BBD7A14772 DUP15 0xF6 SHL 0xC3 0xCE PUSH17 0x2ECA7B1E1E36F1FEA564736F6C63430008 SHR STOP CALLER LOG2 PUSH5 0x6970667358 0x22 SLT KECCAK256 CALLDATALOAD PUSH16 0xC8D3ACAC5E05C175011D1439448957F9 KECCAK256 PUSH13 0x405E590F1D625FB00280A2064 PUSH20 0x6F6C634300081C00330000000000000000000000 "},"methodIdentifiers":{"allContracts(uint256)":"e54e26b9","createMultisigContract()":"5856fbf1","getAllAddressContracts()":"73037916","getAllContracts()":"18d3ce96","ownerToContracts(address,uint256)":"6a1972bd"}}}}}