{
  "_format": "hh-sol-artifact-1",
  "contractName": "SchoolManagementSystem",
  "sourceName": "contracts/mappingStudentMangement.sol",
  "abi": [
    {
      "inputs": [],
      "name": "INVALID_ID",
      "type": "error"
    },
    {
      "inputs": [],
      "name": "INVALID_SENDER",
      "type": "error"
    },
    {
      "inputs": [],
      "name": "STUDENT_NOT_FOUND",
      "type": "error"
    },
    {
      "inputs": [
        {
          "internalType": "address",
          "name": "_addr",
          "type": "address"
        }
      ],
      "name": "delete_student",
      "outputs": [],
      "stateMutability": "nonpayable",
      "type": "function"
    },
    {
      "inputs": [],
      "name": "get_all_students",
      "outputs": [
        {
          "components": [
            {
              "internalType": "address",
              "name": "addr",
              "type": "address"
            },
            {
              "internalType": "uint256",
              "name": "id",
              "type": "uint256"
            },
            {
              "internalType": "string",
              "name": "name",
              "type": "string"
            },
            {
              "internalType": "string",
              "name": "course",
              "type": "string"
            },
            {
              "internalType": "uint256",
              "name": "age",
              "type": "uint256"
            },
            {
              "internalType": "enum SchoolManagementSystem.Status",
              "name": "status",
              "type": "uint8"
            }
          ],
          "internalType": "struct SchoolManagementSystem.StudentDetails[]",
          "name": "",
          "type": "tuple[]"
        }
      ],
      "stateMutability": "view",
      "type": "function"
    },
    {
      "inputs": [
        {
          "internalType": "address",
          "name": "_addr",
          "type": "address"
        }
      ],
      "name": "get_student_by_address",
      "outputs": [
        {
          "components": [
            {
              "internalType": "address",
              "name": "addr",
              "type": "address"
            },
            {
              "internalType": "uint256",
              "name": "id",
              "type": "uint256"
            },
            {
              "internalType": "string",
              "name": "name",
              "type": "string"
            },
            {
              "internalType": "string",
              "name": "course",
              "type": "string"
            },
            {
              "internalType": "uint256",
              "name": "age",
              "type": "uint256"
            },
            {
              "internalType": "enum SchoolManagementSystem.Status",
              "name": "status",
              "type": "uint8"
            }
          ],
          "internalType": "struct SchoolManagementSystem.StudentDetails",
          "name": "",
          "type": "tuple"
        }
      ],
      "stateMutability": "view",
      "type": "function"
    },
    {
      "inputs": [
        {
          "internalType": "address",
          "name": "_addr",
          "type": "address"
        },
        {
          "internalType": "string",
          "name": "_name",
          "type": "string"
        },
        {
          "internalType": "string",
          "name": "_course",
          "type": "string"
        },
        {
          "internalType": "uint256",
          "name": "_age",
          "type": "uint256"
        }
      ],
      "name": "register_student",
      "outputs": [],
      "stateMutability": "nonpayable",
      "type": "function"
    },
    {
      "inputs": [
        {
          "internalType": "uint256",
          "name": "",
          "type": "uint256"
        }
      ],
      "name": "students",
      "outputs": [
        {
          "internalType": "address",
          "name": "addr",
          "type": "address"
        },
        {
          "internalType": "uint256",
          "name": "id",
          "type": "uint256"
        },
        {
          "internalType": "string",
          "name": "name",
          "type": "string"
        },
        {
          "internalType": "string",
          "name": "course",
          "type": "string"
        },
        {
          "internalType": "uint256",
          "name": "age",
          "type": "uint256"
        },
        {
          "internalType": "enum SchoolManagementSystem.Status",
          "name": "status",
          "type": "uint8"
        }
      ],
      "stateMutability": "view",
      "type": "function"
    },
    {
      "inputs": [
        {
          "internalType": "address",
          "name": "_addr",
          "type": "address"
        },
        {
          "internalType": "string",
          "name": "_new_name",
          "type": "string"
        },
        {
          "internalType": "string",
          "name": "_new_course",
          "type": "string"
        },
        {
          "internalType": "uint256",
          "name": "_new_age",
          "type": "uint256"
        }
      ],
      "name": "update_student",
      "outputs": [],
      "stateMutability": "nonpayable",
      "type": "function"
    },
    {
      "inputs": [
        {
          "internalType": "address",
          "name": "_addr",
          "type": "address"
        },
        {
          "internalType": "enum SchoolManagementSystem.Status",
          "name": "_new_status",
          "type": "uint8"
        }
      ],
      "name": "update_students_status",
      "outputs": [],
      "stateMutability": "nonpayable",
      "type": "function"
    }
  ],
  "bytecode": "0x6080604052348015600f57600080fd5b506123068061001f6000396000f3fe608060405234801561001057600080fd5b506004361061007d5760003560e01c8063521df8d61161005b578063521df8d6146100f1578063b6393da21461010d578063c26294ba14610129578063f902e7e0146101595761007d565b806306ead22e146100825780632e2b41b4146100b75780633ab9a9ec146100d3575b600080fd5b61009c600480360381019061009791906116dd565b610175565b6040516100ae96959493929190611861565b60405180910390f35b6100d160048036038101906100cc9190611a31565b6102fe565b005b6100db61078e565b6040516100e89190611c99565b60405180910390f35b61010b60048036038101906101069190611a31565b6109b6565b005b61012760048036038101906101229190611cbb565b610c0b565b005b610143600480360381019061013e9190611cbb565b610f58565b6040516101509190611d78565b60405180910390f35b610173600480360381019061016e9190611dbf565b611179565b005b6002818154811061018557600080fd5b90600052602060002090600602016000915090508060000160009054906101000a900473ffffffffffffffffffffffffffffffffffffffff16908060010154908060020180546101d490611e2e565b80601f016020809104026020016040519081016040528092919081815260200182805461020090611e2e565b801561024d5780601f106102225761010080835404028352916020019161024d565b820191906000526020600020905b81548152906001019060200180831161023057829003601f168201915b50505050509080600301805461026290611e2e565b80601f016020809104026020016040519081016040528092919081815260200182805461028e90611e2e565b80156102db5780601f106102b0576101008083540402835291602001916102db565b820191906000526020600020905b8154815290600101906020018083116102be57829003601f168201915b5050505050908060040154908060050160009054906101000a900460ff16905086565b60008060008673ffffffffffffffffffffffffffffffffffffffff1673ffffffffffffffffffffffffffffffffffffffff1681526020019081526020016000206040518060c00160405290816000820160009054906101000a900473ffffffffffffffffffffffffffffffffffffffff1673ffffffffffffffffffffffffffffffffffffffff1673ffffffffffffffffffffffffffffffffffffffff168152602001600182015481526020016002820180546103b990611e2e565b80601f01602080910402602001604051908101604052809291908181526020018280546103e590611e2e565b80156104325780601f1061040757610100808354040283529160200191610432565b820191906000526020600020905b81548152906001019060200180831161041557829003601f168201915b5050505050815260200160038201805461044b90611e2e565b80601f016020809104026020016040519081016040528092919081815260200182805461047790611e2e565b80156104c45780601f10610499576101008083540402835291602001916104c4565b820191906000526020600020905b8154815290600101906020018083116104a757829003601f168201915b50505050508152602001600482015481526020016005820160009054906101000a900460ff1660028111156104fc576104fb6117ea565b5b600281111561050e5761050d6117ea565b5b81525050905083816040018190525081816080018181525050828160600181905250806000808773ffffffffffffffffffffffffffffffffffffffff1673ffffffffffffffffffffffffffffffffffffffff16815260200190815260200160002060008201518160000160006101000a81548173ffffffffffffffffffffffffffffffffffffffff021916908373ffffffffffffffffffffffffffffffffffffffff1602179055506020820151816001015560408201518160020190816105d5919061200b565b5060608201518160030190816105eb919061200b565b506080820151816004015560a08201518160050160006101000a81548160ff02191690836002811115610621576106206117ea565b5b021790555090505060005b600280549050811015610755578573ffffffffffffffffffffffffffffffffffffffff1660028281548110610664576106636120dd565b5b906000526020600020906006020160000160009054906101000a900473ffffffffffffffffffffffffffffffffffffffff1673ffffffffffffffffffffffffffffffffffffffff16036107485784600282815481106106c6576106c56120dd565b5b906000526020600020906006020160020190816106e3919061200b565b5083600282815481106106f9576106f86120dd565b5b90600052602060002090600602016003019081610716919061200b565b50826002828154811061072c5761072b6120dd565b5b9060005260206000209060060201600401819055505050610788565b808060010191505061062c565b506040517faca0832a00000000000000000000000000000000000000000000000000000000815260040160405180910390fd5b50505050565b60606002805480602002602001604051908101604052809291908181526020016000905b828210156109ad57838290600052602060002090600602016040518060c00160405290816000820160009054906101000a900473ffffffffffffffffffffffffffffffffffffffff1673ffffffffffffffffffffffffffffffffffffffff1673ffffffffffffffffffffffffffffffffffffffff1681526020016001820154815260200160028201805461084590611e2e565b80601f016020809104026020016040519081016040528092919081815260200182805461087190611e2e565b80156108be5780601f10610893576101008083540402835291602001916108be565b820191906000526020600020905b8154815290600101906020018083116108a157829003601f168201915b505050505081526020016003820180546108d790611e2e565b80601f016020809104026020016040519081016040528092919081815260200182805461090390611e2e565b80156109505780601f1061092557610100808354040283529160200191610950565b820191906000526020600020905b81548152906001019060200180831161093357829003601f168201915b50505050508152602001600482015481526020016005820160009054906101000a900460ff166002811115610988576109876117ea565b5b600281111561099a576109996117ea565b5b81525050815260200190600101906107b2565b50505050905090565b600180546109c4919061213b565b60018190555060006040518060c001604052808673ffffffffffffffffffffffffffffffffffffffff168152602001600154815260200185815260200184815260200183815260200160006002811115610a2157610a206117ea565b5b8152509050806000808773ffffffffffffffffffffffffffffffffffffffff1673ffffffffffffffffffffffffffffffffffffffff16815260200190815260200160002060008201518160000160006101000a81548173ffffffffffffffffffffffffffffffffffffffff021916908373ffffffffffffffffffffffffffffffffffffffff160217905550602082015181600101556040820151816002019081610acb919061200b565b506060820151816003019081610ae1919061200b565b506080820151816004015560a08201518160050160006101000a81548160ff02191690836002811115610b1757610b166117ea565b5b0217905550905050600281908060018154018082558091505060019003906000526020600020906006020160009091909190915060008201518160000160006101000a81548173ffffffffffffffffffffffffffffffffffffffff021916908373ffffffffffffffffffffffffffffffffffffffff160217905550602082015181600101556040820151816002019081610bb1919061200b565b506060820151816003019081610bc7919061200b565b506080820151816004015560a08201518160050160006101000a81548160ff02191690836002811115610bfd57610bfc6117ea565b5b021790555050505050505050565b6000808273ffffffffffffffffffffffffffffffffffffffff1673ffffffffffffffffffffffffffffffffffffffff168152602001908152602001600020600080820160006101000a81549073ffffffffffffffffffffffffffffffffffffffff02191690556001820160009055600282016000610c8991906115d8565b600382016000610c9991906115d8565b60048201600090556005820160006101000a81549060ff0219169055505060005b600280549050811015610f22578173ffffffffffffffffffffffffffffffffffffffff1660028281548110610cf257610cf16120dd565b5b906000526020600020906006020160000160009054906101000a900473ffffffffffffffffffffffffffffffffffffffff1673ffffffffffffffffffffffffffffffffffffffff1603610f155760026001600280549050610d53919061216f565b81548110610d6457610d636120dd565b5b906000526020600020906006020160028281548110610d8657610d856120dd565b5b90600052602060002090600602016000820160009054906101000a900473ffffffffffffffffffffffffffffffffffffffff168160000160006101000a81548173ffffffffffffffffffffffffffffffffffffffff021916908373ffffffffffffffffffffffffffffffffffffffff1602179055506001820154816001015560028201816002019081610e1991906121b9565b5060038201816003019081610e2e91906121b9565b50600482015481600401556005820160009054906101000a900460ff168160050160006101000a81548160ff02191690836002811115610e7157610e706117ea565b5b02179055509050506002805480610e8b57610e8a6122a1565b5b6001900381819060005260206000209060060201600080820160006101000a81549073ffffffffffffffffffffffffffffffffffffffff02191690556001820160009055600282016000610edf91906115d8565b600382016000610eef91906115d8565b60048201600090556005820160006101000a81549060ff02191690555050905550610f55565b8080600101915050610cba565b506040517faca0832a00000000000000000000000000000000000000000000000000000000815260040160405180910390fd5b50565b610f60611618565b6000808373ffffffffffffffffffffffffffffffffffffffff1673ffffffffffffffffffffffffffffffffffffffff1681526020019081526020016000206040518060c00160405290816000820160009054906101000a900473ffffffffffffffffffffffffffffffffffffffff1673ffffffffffffffffffffffffffffffffffffffff1673ffffffffffffffffffffffffffffffffffffffff1681526020016001820154815260200160028201805461101990611e2e565b80601f016020809104026020016040519081016040528092919081815260200182805461104590611e2e565b80156110925780601f1061106757610100808354040283529160200191611092565b820191906000526020600020905b81548152906001019060200180831161107557829003601f168201915b505050505081526020016003820180546110ab90611e2e565b80601f01602080910402602001604051908101604052809291908181526020018280546110d790611e2e565b80156111245780601f106110f957610100808354040283529160200191611124565b820191906000526020600020905b81548152906001019060200180831161110757829003601f168201915b50505050508152602001600482015481526020016005820160009054906101000a900460ff16600281111561115c5761115b6117ea565b5b600281111561116e5761116d6117ea565b5b815250509050919050565b60008060008473ffffffffffffffffffffffffffffffffffffffff1673ffffffffffffffffffffffffffffffffffffffff1681526020019081526020016000206040518060c00160405290816000820160009054906101000a900473ffffffffffffffffffffffffffffffffffffffff1673ffffffffffffffffffffffffffffffffffffffff1673ffffffffffffffffffffffffffffffffffffffff1681526020016001820154815260200160028201805461123490611e2e565b80601f016020809104026020016040519081016040528092919081815260200182805461126090611e2e565b80156112ad5780601f10611282576101008083540402835291602001916112ad565b820191906000526020600020905b81548152906001019060200180831161129057829003601f168201915b505050505081526020016003820180546112c690611e2e565b80601f01602080910402602001604051908101604052809291908181526020018280546112f290611e2e565b801561133f5780601f106113145761010080835404028352916020019161133f565b820191906000526020600020905b81548152906001019060200180831161132257829003601f168201915b50505050508152602001600482015481526020016005820160009054906101000a900460ff166002811115611377576113766117ea565b5b6002811115611389576113886117ea565b5b815250509050818160a0019060028111156113a7576113a66117ea565b5b908160028111156113bb576113ba6117ea565b5b81525050806000808573ffffffffffffffffffffffffffffffffffffffff1673ffffffffffffffffffffffffffffffffffffffff16815260200190815260200160002060008201518160000160006101000a81548173ffffffffffffffffffffffffffffffffffffffff021916908373ffffffffffffffffffffffffffffffffffffffff160217905550602082015181600101556040820151816002019081611464919061200b565b50606082015181600301908161147a919061200b565b506080820151816004015560a08201518160050160006101000a81548160ff021916908360028111156114b0576114af6117ea565b5b021790555090505060005b6002805490508110156115a1578373ffffffffffffffffffffffffffffffffffffffff16600282815481106114f3576114f26120dd565b5b906000526020600020906006020160000160009054906101000a900473ffffffffffffffffffffffffffffffffffffffff1673ffffffffffffffffffffffffffffffffffffffff1603611594578260028281548110611555576115546120dd565b5b906000526020600020906006020160050160006101000a81548160ff02191690836002811115611588576115876117ea565b5b021790555050506115d4565b80806001019150506114bb565b506040517faca0832a00000000000000000000000000000000000000000000000000000000815260040160405180910390fd5b5050565b5080546115e490611e2e565b6000825580601f106115f65750611615565b601f0160209004906000526020600020908101906116149190611676565b5b50565b6040518060c00160405280600073ffffffffffffffffffffffffffffffffffffffff16815260200160008152602001606081526020016060815260200160008152602001600060028111156116705761166f6117ea565b5b81525090565b5b8082111561168f576000816000905550600101611677565b5090565b6000604051905090565b600080fd5b600080fd5b6000819050919050565b6116ba816116a7565b81146116c557600080fd5b50565b6000813590506116d7816116b1565b92915050565b6000602082840312156116f3576116f261169d565b5b6000611701848285016116c8565b91505092915050565b600073ffffffffffffffffffffffffffffffffffffffff82169050919050565b60006117358261170a565b9050919050565b6117458161172a565b82525050565b611754816116a7565b82525050565b600081519050919050565b600082825260208201905092915050565b60005b83811015611794578082015181840152602081019050611779565b60008484015250505050565b6000601f19601f8301169050919050565b60006117bc8261175a565b6117c68185611765565b93506117d6818560208601611776565b6117df816117a0565b840191505092915050565b7f4e487b7100000000000000000000000000000000000000000000000000000000600052602160045260246000fd5b6003811061182a576118296117ea565b5b50565b600081905061183b82611819565b919050565b600061184b8261182d565b9050919050565b61185b81611840565b82525050565b600060c082019050611876600083018961173c565b611883602083018861174b565b818103604083015261189581876117b1565b905081810360608301526118a981866117b1565b90506118b8608083018561174b565b6118c560a0830184611852565b979650505050505050565b6118d98161172a565b81146118e457600080fd5b50565b6000813590506118f6816118d0565b92915050565b600080fd5b600080fd5b7f4e487b7100000000000000000000000000000000000000000000000000000000600052604160045260246000fd5b61193e826117a0565b810181811067ffffffffffffffff8211171561195d5761195c611906565b5b80604052505050565b6000611970611693565b905061197c8282611935565b919050565b600067ffffffffffffffff82111561199c5761199b611906565b5b6119a5826117a0565b9050602081019050919050565b82818337600083830152505050565b60006119d46119cf84611981565b611966565b9050828152602081018484840111156119f0576119ef611901565b5b6119fb8482856119b2565b509392505050565b600082601f830112611a1857611a176118fc565b5b8135611a288482602086016119c1565b91505092915050565b60008060008060808587031215611a4b57611a4a61169d565b5b6000611a59878288016118e7565b945050602085013567ffffffffffffffff811115611a7a57611a796116a2565b5b611a8687828801611a03565b935050604085013567ffffffffffffffff811115611aa757611aa66116a2565b5b611ab387828801611a03565b9250506060611ac4878288016116c8565b91505092959194509250565b600081519050919050565b600082825260208201905092915050565b6000819050602082019050919050565b611b058161172a565b82525050565b611b14816116a7565b82525050565b600082825260208201905092915050565b6000611b368261175a565b611b408185611b1a565b9350611b50818560208601611776565b611b59816117a0565b840191505092915050565b611b6d81611840565b82525050565b600060c083016000830151611b8b6000860182611afc565b506020830151611b9e6020860182611b0b565b5060408301518482036040860152611bb68282611b2b565b91505060608301518482036060860152611bd08282611b2b565b9150506080830151611be56080860182611b0b565b5060a0830151611bf860a0860182611b64565b508091505092915050565b6000611c0f8383611b73565b905092915050565b6000602082019050919050565b6000611c2f82611ad0565b611c398185611adb565b935083602082028501611c4b85611aec565b8060005b85811015611c875784840389528151611c688582611c03565b9450611c7383611c17565b925060208a01995050600181019050611c4f565b50829750879550505050505092915050565b60006020820190508181036000830152611cb38184611c24565b905092915050565b600060208284031215611cd157611cd061169d565b5b6000611cdf848285016118e7565b91505092915050565b600060c083016000830151611d006000860182611afc565b506020830151611d136020860182611b0b565b5060408301518482036040860152611d2b8282611b2b565b91505060608301518482036060860152611d458282611b2b565b9150506080830151611d5a6080860182611b0b565b5060a0830151611d6d60a0860182611b64565b508091505092915050565b60006020820190508181036000830152611d928184611ce8565b905092915050565b60038110611da757600080fd5b50565b600081359050611db981611d9a565b92915050565b60008060408385031215611dd657611dd561169d565b5b6000611de4858286016118e7565b9250506020611df585828601611daa565b9150509250929050565b7f4e487b7100000000000000000000000000000000000000000000000000000000600052602260045260246000fd5b60006002820490506001821680611e4657607f821691505b602082108103611e5957611e58611dff565b5b50919050565b60008190508160005260206000209050919050565b60006020601f8301049050919050565b600082821b905092915050565b600060088302611ec17fffffffffffffffffffffffffffffffffffffffffffffffffffffffffffffffff82611e84565b611ecb8683611e84565b95508019841693508086168417925050509392505050565b6000819050919050565b6000611f08611f03611efe846116a7565b611ee3565b6116a7565b9050919050565b6000819050919050565b611f2283611eed565b611f36611f2e82611f0f565b848454611e91565b825550505050565b600090565b611f4b611f3e565b611f56818484611f19565b505050565b5b81811015611f7a57611f6f600082611f43565b600181019050611f5c565b5050565b601f821115611fbf57611f9081611e5f565b611f9984611e74565b81016020851015611fa8578190505b611fbc611fb485611e74565b830182611f5b565b50505b505050565b600082821c905092915050565b6000611fe260001984600802611fc4565b1980831691505092915050565b6000611ffb8383611fd1565b9150826002028217905092915050565b6120148261175a565b67ffffffffffffffff81111561202d5761202c611906565b5b6120378254611e2e565b612042828285611f7e565b600060209050601f8311600181146120755760008415612063578287015190505b61206d8582611fef565b8655506120d5565b601f19841661208386611e5f565b60005b828110156120ab57848901518255600182019150602085019450602081019050612086565b868310156120c857848901516120c4601f891682611fd1565b8355505b6001600288020188555050505b505050505050565b7f4e487b7100000000000000000000000000000000000000000000000000000000600052603260045260246000fd5b7f4e487b7100000000000000000000000000000000000000000000000000000000600052601160045260246000fd5b6000612146826116a7565b9150612151836116a7565b92508282019050808211156121695761216861210c565b5b92915050565b600061217a826116a7565b9150612185836116a7565b925082820390508181111561219d5761219c61210c565b5b92915050565b6000815490506121b281611e2e565b9050919050565b8181036121c757505061229f565b6121d0826121a3565b67ffffffffffffffff8111156121e9576121e8611906565b5b6121f38254611e2e565b6121fe828285611f7e565b6000601f83116001811461222d576000841561221b578287015490505b6122258582611fef565b865550612298565b601f19841661223b87611e5f565b965061224686611e5f565b60005b8281101561226e57848901548255600182019150600185019450602081019050612249565b8683101561228b5784890154612287601f891682611fd1565b8355505b6001600288020188555050505b5050505050505b565b7f4e487b7100000000000000000000000000000000000000000000000000000000600052603160045260246000fdfea2646970667358221220422710fbb723a053c855750ed72e0e1392ec1c793d21289baf154bc3b0027b6364736f6c634300081c0033",
  "linkReferences": {},
  "deployedLinkReferences": {}
}