{
  "_format": "hh-sol-artifact-1",
  "contractName": "ERC_20_FACTORY",
  "sourceName": "contracts/factory.sol",
  "abi": [
    {
      "inputs": [],
      "stateMutability": "nonpayable",
      "type": "constructor"
    },
    {
      "inputs": [
        {
          "internalType": "address",
          "name": "_owner",
          "type": "address"
        },
        {
          "internalType": "address",
          "name": "_spender",
          "type": "address"
        },
        {
          "internalType": "uint256",
          "name": "_index",
          "type": "uint256"
        }
      ],
      "name": "allowance",
      "outputs": [
        {
          "internalType": "uint256",
          "name": "",
          "type": "uint256"
        }
      ],
      "stateMutability": "view",
      "type": "function"
    },
    {
      "inputs": [
        {
          "internalType": "address",
          "name": "_spender",
          "type": "address"
        },
        {
          "internalType": "uint256",
          "name": "_value",
          "type": "uint256"
        },
        {
          "internalType": "uint256",
          "name": "_index",
          "type": "uint256"
        }
      ],
      "name": "approve",
      "outputs": [
        {
          "internalType": "bool",
          "name": "success",
          "type": "bool"
        }
      ],
      "stateMutability": "nonpayable",
      "type": "function"
    },
    {
      "inputs": [
        {
          "internalType": "address",
          "name": "_owner",
          "type": "address"
        },
        {
          "internalType": "uint256",
          "name": "_index",
          "type": "uint256"
        }
      ],
      "name": "balanceOf",
      "outputs": [
        {
          "internalType": "uint256",
          "name": "",
          "type": "uint256"
        }
      ],
      "stateMutability": "view",
      "type": "function"
    },
    {
      "inputs": [
        {
          "internalType": "string",
          "name": "_name",
          "type": "string"
        },
        {
          "internalType": "string",
          "name": "_symbol",
          "type": "string"
        }
      ],
      "name": "create_erc_20_contract",
      "outputs": [],
      "stateMutability": "nonpayable",
      "type": "function"
    },
    {
      "inputs": [
        {
          "internalType": "uint256",
          "name": "_index",
          "type": "uint256"
        }
      ],
      "name": "decimals",
      "outputs": [
        {
          "internalType": "uint256",
          "name": "",
          "type": "uint256"
        }
      ],
      "stateMutability": "view",
      "type": "function"
    },
    {
      "inputs": [
        {
          "internalType": "uint256",
          "name": "",
          "type": "uint256"
        }
      ],
      "name": "erc_20_contracts",
      "outputs": [
        {
          "internalType": "address",
          "name": "",
          "type": "address"
        }
      ],
      "stateMutability": "view",
      "type": "function"
    },
    {
      "inputs": [],
      "name": "getAllContractAddresses",
      "outputs": [
        {
          "internalType": "address[]",
          "name": "",
          "type": "address[]"
        }
      ],
      "stateMutability": "view",
      "type": "function"
    },
    {
      "inputs": [],
      "name": "getContractAddress",
      "outputs": [
        {
          "internalType": "address",
          "name": "",
          "type": "address"
        }
      ],
      "stateMutability": "view",
      "type": "function"
    },
    {
      "inputs": [
        {
          "internalType": "uint256",
          "name": "_index",
          "type": "uint256"
        }
      ],
      "name": "name",
      "outputs": [
        {
          "internalType": "string",
          "name": "",
          "type": "string"
        }
      ],
      "stateMutability": "view",
      "type": "function"
    },
    {
      "inputs": [
        {
          "internalType": "uint256",
          "name": "_index",
          "type": "uint256"
        }
      ],
      "name": "symbol",
      "outputs": [
        {
          "internalType": "string",
          "name": "",
          "type": "string"
        }
      ],
      "stateMutability": "view",
      "type": "function"
    },
    {
      "inputs": [
        {
          "internalType": "uint256",
          "name": "_index",
          "type": "uint256"
        }
      ],
      "name": "totalSupply",
      "outputs": [
        {
          "internalType": "uint256",
          "name": "",
          "type": "uint256"
        }
      ],
      "stateMutability": "view",
      "type": "function"
    },
    {
      "inputs": [
        {
          "internalType": "address",
          "name": "_to",
          "type": "address"
        },
        {
          "internalType": "uint256",
          "name": "_value",
          "type": "uint256"
        },
        {
          "internalType": "uint256",
          "name": "_index",
          "type": "uint256"
        }
      ],
      "name": "transfer",
      "outputs": [
        {
          "internalType": "bool",
          "name": "success",
          "type": "bool"
        }
      ],
      "stateMutability": "nonpayable",
      "type": "function"
    },
    {
      "inputs": [
        {
          "internalType": "address",
          "name": "_from",
          "type": "address"
        },
        {
          "internalType": "address",
          "name": "_to",
          "type": "address"
        },
        {
          "internalType": "uint256",
          "name": "_value",
          "type": "uint256"
        },
        {
          "internalType": "uint256",
          "name": "_index",
          "type": "uint256"
        }
      ],
      "name": "transferFrom",
      "outputs": [
        {
          "internalType": "bool",
          "name": "success",
          "type": "bool"
        }
      ],
      "stateMutability": "nonpayable",
      "type": "function"
    }
  ],
  "bytecode": "0x6080604052348015600f57600080fd5b5061357f8061001f6000396000f3fe608060405234801561001057600080fd5b50600436106100cd5760003560e01c80633f47e6621161008c578063598af9e711610066578063598af9e71461024a57806365670e401461027a578063bd85b039146102aa578063fe99049a146102da576100cd565b80633f47e662146101ba578063426a8493146101ea5780634e41a1fb1461021a576100cd565b8062ad800c146100d2578062fdd58e14610102578063095bcdb6146101325780630e18b30f1461016257806332a2c5d01461017e5780633b33b61a1461019c575b600080fd5b6100ec60048036038101906100e79190610ff0565b61030a565b6040516100f991906110ad565b60405180910390f35b61011c6004803603810190610117919061112d565b610411565b604051610129919061117c565b60405180910390f35b61014c60048036038101906101479190611197565b61051e565b6040516101599190611205565b60405180910390f35b61017c60048036038101906101779190611355565b610633565b005b610186610755565b60405161019391906113dc565b60405180910390f35b6101a4610889565b6040516101b191906114b5565b60405180910390f35b6101d460048036038101906101cf9190610ff0565b610917565b6040516101e1919061117c565b60405180910390f35b61020460048036038101906101ff9190611197565b610a18565b6040516102119190611205565b60405180910390f35b610234600480360381019061022f9190610ff0565b610b2d565b60405161024191906110ad565b60405180910390f35b610264600480360381019061025f91906114d7565b610c34565b604051610271919061117c565b60405180910390f35b610294600480360381019061028f9190610ff0565b610d44565b6040516102a191906113dc565b60405180910390f35b6102c460048036038101906102bf9190610ff0565b610d83565b6040516102d1919061117c565b60405180910390f35b6102f460048036038101906102ef919061152a565b610e84565b6040516103019190611205565b60405180910390f35b60606000805490508210610353576040517f08c379a000000000000000000000000000000000000000000000000000000000815260040161034a906115dd565b60405180910390fd5b6000808381548110610368576103676115fd565b5b9060005260206000200160009054906101000a900473ffffffffffffffffffffffffffffffffffffffff1690508073ffffffffffffffffffffffffffffffffffffffff166306fdde036040518163ffffffff1660e01b8152600401600060405180830381865afa1580156103e0573d6000803e3d6000fd5b505050506040513d6000823e3d601f19601f82011682018060405250810190610409919061169c565b915050919050565b600080805490508210610459576040517f08c379a0000000000000000000000000000000000000000000000000000000008152600401610450906115dd565b60405180910390fd5b600080838154811061046e5761046d6115fd565b5b9060005260206000200160009054906101000a900473ffffffffffffffffffffffffffffffffffffffff1690508073ffffffffffffffffffffffffffffffffffffffff166370a08231856040518263ffffffff1660e01b81526004016104d491906113dc565b602060405180830381865afa1580156104f1573d6000803e3d6000fd5b505050506040513d601f19601f8201168201806040525081019061051591906116fa565b91505092915050565b600080805490508210610566576040517f08c379a000000000000000000000000000000000000000000000000000000000815260040161055d906115dd565b60405180910390fd5b600080838154811061057b5761057a6115fd565b5b9060005260206000200160009054906101000a900473ffffffffffffffffffffffffffffffffffffffff1690508073ffffffffffffffffffffffffffffffffffffffff1663a9059cbb86866040518363ffffffff1660e01b81526004016105e3929190611727565b6020604051808303816000875af1158015610602573d6000803e3d6000fd5b505050506040513d601f19601f82011682018060405250810190610626919061177c565b5060019150509392505050565b600082823360405161064490610f99565b610650939291906117a9565b604051809103906000f08015801561066c573d6000803e3d6000fd5b5090506000819080600181540180825580915050600190039060005260206000200160009091909190916101000a81548173ffffffffffffffffffffffffffffffffffffffff021916908373ffffffffffffffffffffffffffffffffffffffff16021790555080600160003373ffffffffffffffffffffffffffffffffffffffff1673ffffffffffffffffffffffffffffffffffffffff16815260200190815260200160002060006101000a81548173ffffffffffffffffffffffffffffffffffffffff021916908373ffffffffffffffffffffffffffffffffffffffff160217905550505050565b60008073ffffffffffffffffffffffffffffffffffffffff16600160003373ffffffffffffffffffffffffffffffffffffffff1673ffffffffffffffffffffffffffffffffffffffff16815260200190815260200160002060009054906101000a900473ffffffffffffffffffffffffffffffffffffffff1673ffffffffffffffffffffffffffffffffffffffff1603610824576040517f08c379a000000000000000000000000000000000000000000000000000000000815260040161081b9061183a565b60405180910390fd5b600160003373ffffffffffffffffffffffffffffffffffffffff1673ffffffffffffffffffffffffffffffffffffffff16815260200190815260200160002060009054906101000a900473ffffffffffffffffffffffffffffffffffffffff16905090565b6060600080548060200260200160405190810160405280929190818152602001828054801561090d57602002820191906000526020600020905b8160009054906101000a900473ffffffffffffffffffffffffffffffffffffffff1673ffffffffffffffffffffffffffffffffffffffff16815260200190600101908083116108c3575b5050505050905090565b60008080549050821061095f576040517f08c379a0000000000000000000000000000000000000000000000000000000008152600401610956906115dd565b60405180910390fd5b6000808381548110610974576109736115fd565b5b9060005260206000200160009054906101000a900473ffffffffffffffffffffffffffffffffffffffff1690508073ffffffffffffffffffffffffffffffffffffffff1663313ce5676040518163ffffffff1660e01b8152600401602060405180830381865afa1580156109ec573d6000803e3d6000fd5b505050506040513d601f19601f82011682018060405250810190610a1091906116fa565b915050919050565b600080805490508210610a60576040517f08c379a0000000000000000000000000000000000000000000000000000000008152600401610a57906115dd565b60405180910390fd5b6000808381548110610a7557610a746115fd565b5b9060005260206000200160009054906101000a900473ffffffffffffffffffffffffffffffffffffffff1690508073ffffffffffffffffffffffffffffffffffffffff1663095ea7b386866040518363ffffffff1660e01b8152600401610add929190611727565b6020604051808303816000875af1158015610afc573d6000803e3d6000fd5b505050506040513d601f19601f82011682018060405250810190610b20919061177c565b5060019150509392505050565b60606000805490508210610b76576040517f08c379a0000000000000000000000000000000000000000000000000000000008152600401610b6d906115dd565b60405180910390fd5b6000808381548110610b8b57610b8a6115fd565b5b9060005260206000200160009054906101000a900473ffffffffffffffffffffffffffffffffffffffff1690508073ffffffffffffffffffffffffffffffffffffffff166395d89b416040518163ffffffff1660e01b8152600401600060405180830381865afa158015610c03573d6000803e3d6000fd5b505050506040513d6000823e3d601f19601f82011682018060405250810190610c2c919061169c565b915050919050565b600080805490508210610c7c576040517f08c379a0000000000000000000000000000000000000000000000000000000008152600401610c73906115dd565b60405180910390fd5b6000808381548110610c9157610c906115fd565b5b9060005260206000200160009054906101000a900473ffffffffffffffffffffffffffffffffffffffff1690508073ffffffffffffffffffffffffffffffffffffffff1663dd62ed3e86866040518363ffffffff1660e01b8152600401610cf992919061185a565b602060405180830381865afa158015610d16573d6000803e3d6000fd5b505050506040513d601f19601f82011682018060405250810190610d3a91906116fa565b9150509392505050565b60008181548110610d5457600080fd5b906000526020600020016000915054906101000a900473ffffffffffffffffffffffffffffffffffffffff1681565b600080805490508210610dcb576040517f08c379a0000000000000000000000000000000000000000000000000000000008152600401610dc2906115dd565b60405180910390fd5b6000808381548110610de057610ddf6115fd565b5b9060005260206000200160009054906101000a900473ffffffffffffffffffffffffffffffffffffffff1690508073ffffffffffffffffffffffffffffffffffffffff166318160ddd6040518163ffffffff1660e01b8152600401602060405180830381865afa158015610e58573d6000803e3d6000fd5b505050506040513d601f19601f82011682018060405250810190610e7c91906116fa565b915050919050565b600080805490508210610ecc576040517f08c379a0000000000000000000000000000000000000000000000000000000008152600401610ec3906115dd565b60405180910390fd5b6000808381548110610ee157610ee06115fd565b5b9060005260206000200160009054906101000a900473ffffffffffffffffffffffffffffffffffffffff1690508073ffffffffffffffffffffffffffffffffffffffff166323b872dd8787876040518463ffffffff1660e01b8152600401610f4b93929190611883565b6020604051808303816000875af1158015610f6a573d6000803e3d6000fd5b505050506040513d601f19601f82011682018060405250810190610f8e919061177c565b915050949350505050565b611c8f806118bb83390190565b6000604051905090565b600080fd5b600080fd5b6000819050919050565b610fcd81610fba565b8114610fd857600080fd5b50565b600081359050610fea81610fc4565b92915050565b60006020828403121561100657611005610fb0565b5b600061101484828501610fdb565b91505092915050565b600081519050919050565b600082825260208201905092915050565b60005b8381101561105757808201518184015260208101905061103c565b60008484015250505050565b6000601f19601f8301169050919050565b600061107f8261101d565b6110898185611028565b9350611099818560208601611039565b6110a281611063565b840191505092915050565b600060208201905081810360008301526110c78184611074565b905092915050565b600073ffffffffffffffffffffffffffffffffffffffff82169050919050565b60006110fa826110cf565b9050919050565b61110a816110ef565b811461111557600080fd5b50565b60008135905061112781611101565b92915050565b6000806040838503121561114457611143610fb0565b5b600061115285828601611118565b925050602061116385828601610fdb565b9150509250929050565b61117681610fba565b82525050565b6000602082019050611191600083018461116d565b92915050565b6000806000606084860312156111b0576111af610fb0565b5b60006111be86828701611118565b93505060206111cf86828701610fdb565b92505060406111e086828701610fdb565b9150509250925092565b60008115159050919050565b6111ff816111ea565b82525050565b600060208201905061121a60008301846111f6565b92915050565b600080fd5b600080fd5b7f4e487b7100000000000000000000000000000000000000000000000000000000600052604160045260246000fd5b61126282611063565b810181811067ffffffffffffffff821117156112815761128061122a565b5b80604052505050565b6000611294610fa6565b90506112a08282611259565b919050565b600067ffffffffffffffff8211156112c0576112bf61122a565b5b6112c982611063565b9050602081019050919050565b82818337600083830152505050565b60006112f86112f3846112a5565b61128a565b90508281526020810184848401111561131457611313611225565b5b61131f8482856112d6565b509392505050565b600082601f83011261133c5761133b611220565b5b813561134c8482602086016112e5565b91505092915050565b6000806040838503121561136c5761136b610fb0565b5b600083013567ffffffffffffffff81111561138a57611389610fb5565b5b61139685828601611327565b925050602083013567ffffffffffffffff8111156113b7576113b6610fb5565b5b6113c385828601611327565b9150509250929050565b6113d6816110ef565b82525050565b60006020820190506113f160008301846113cd565b92915050565b600081519050919050565b600082825260208201905092915050565b6000819050602082019050919050565b61142c816110ef565b82525050565b600061143e8383611423565b60208301905092915050565b6000602082019050919050565b6000611462826113f7565b61146c8185611402565b935061147783611413565b8060005b838110156114a857815161148f8882611432565b975061149a8361144a565b92505060018101905061147b565b5085935050505092915050565b600060208201905081810360008301526114cf8184611457565b905092915050565b6000806000606084860312156114f0576114ef610fb0565b5b60006114fe86828701611118565b935050602061150f86828701611118565b925050604061152086828701610fdb565b9150509250925092565b6000806000806080858703121561154457611543610fb0565b5b600061155287828801611118565b945050602061156387828801611118565b935050604061157487828801610fdb565b925050606061158587828801610fdb565b91505092959194509250565b7f696e646578206f7574206f662072616e67650000000000000000000000000000600082015250565b60006115c7601283611028565b91506115d282611591565b602082019050919050565b600060208201905081810360008301526115f6816115ba565b9050919050565b7f4e487b7100000000000000000000000000000000000000000000000000000000600052603260045260246000fd5b600061163f61163a846112a5565b61128a565b90508281526020810184848401111561165b5761165a611225565b5b611666848285611039565b509392505050565b600082601f83011261168357611682611220565b5b815161169384826020860161162c565b91505092915050565b6000602082840312156116b2576116b1610fb0565b5b600082015167ffffffffffffffff8111156116d0576116cf610fb5565b5b6116dc8482850161166e565b91505092915050565b6000815190506116f481610fc4565b92915050565b6000602082840312156117105761170f610fb0565b5b600061171e848285016116e5565b91505092915050565b600060408201905061173c60008301856113cd565b611749602083018461116d565b9392505050565b611759816111ea565b811461176457600080fd5b50565b60008151905061177681611750565b92915050565b60006020828403121561179257611791610fb0565b5b60006117a084828501611767565b91505092915050565b600060608201905081810360008301526117c38186611074565b905081810360208301526117d78185611074565b90506117e660408301846113cd565b949350505050565b7f796f7520646f6e277420686176652061206368696c6420636f6e747261637400600082015250565b6000611824601f83611028565b915061182f826117ee565b602082019050919050565b6000602082019050818103600083015261185381611817565b9050919050565b600060408201905061186f60008301856113cd565b61187c60208301846113cd565b9392505050565b600060608201905061189860008301866113cd565b6118a560208301856113cd565b6118b2604083018461116d565b94935050505056fe60a06040526010600260006101000a81548160ff021916908360ff16021790555034801561002c57600080fd5b50604051611c8f380380611c8f833981810160405281019061004e91906102f6565b826000908161005d91906105a2565b50816001908161006d91906105a2565b508073ffffffffffffffffffffffffffffffffffffffff1660808173ffffffffffffffffffffffffffffffffffffffff1681525050600260009054906101000a900460ff16600a6100be91906107e3565b633b9aca006100cd919061082e565b6003819055506003546004600060805173ffffffffffffffffffffffffffffffffffffffff1673ffffffffffffffffffffffffffffffffffffffff16815260200190815260200160002081905550505050610870565b6000604051905090565b600080fd5b600080fd5b600080fd5b600080fd5b6000601f19601f8301169050919050565b7f4e487b7100000000000000000000000000000000000000000000000000000000600052604160045260246000fd5b61018a82610141565b810181811067ffffffffffffffff821117156101a9576101a8610152565b5b80604052505050565b60006101bc610123565b90506101c88282610181565b919050565b600067ffffffffffffffff8211156101e8576101e7610152565b5b6101f182610141565b9050602081019050919050565b60005b8381101561021c578082015181840152602081019050610201565b60008484015250505050565b600061023b610236846101cd565b6101b2565b9050828152602081018484840111156102575761025661013c565b5b6102628482856101fe565b509392505050565b600082601f83011261027f5761027e610137565b5b815161028f848260208601610228565b91505092915050565b600073ffffffffffffffffffffffffffffffffffffffff82169050919050565b60006102c382610298565b9050919050565b6102d3816102b8565b81146102de57600080fd5b50565b6000815190506102f0816102ca565b92915050565b60008060006060848603121561030f5761030e61012d565b5b600084015167ffffffffffffffff81111561032d5761032c610132565b5b6103398682870161026a565b935050602084015167ffffffffffffffff81111561035a57610359610132565b5b6103668682870161026a565b9250506040610377868287016102e1565b9150509250925092565b600081519050919050565b7f4e487b7100000000000000000000000000000000000000000000000000000000600052602260045260246000fd5b600060028204905060018216806103d357607f821691505b6020821081036103e6576103e561038c565b5b50919050565b60008190508160005260206000209050919050565b60006020601f8301049050919050565b600082821b905092915050565b60006008830261044e7fffffffffffffffffffffffffffffffffffffffffffffffffffffffffffffffff82610411565b6104588683610411565b95508019841693508086168417925050509392505050565b6000819050919050565b6000819050919050565b600061049f61049a61049584610470565b61047a565b610470565b9050919050565b6000819050919050565b6104b983610484565b6104cd6104c5826104a6565b84845461041e565b825550505050565b600090565b6104e26104d5565b6104ed8184846104b0565b505050565b5b81811015610511576105066000826104da565b6001810190506104f3565b5050565b601f82111561055657610527816103ec565b61053084610401565b8101602085101561053f578190505b61055361054b85610401565b8301826104f2565b50505b505050565b600082821c905092915050565b60006105796000198460080261055b565b1980831691505092915050565b60006105928383610568565b9150826002028217905092915050565b6105ab82610381565b67ffffffffffffffff8111156105c4576105c3610152565b5b6105ce82546103bb565b6105d9828285610515565b600060209050601f83116001811461060c57600084156105fa578287015190505b6106048582610586565b86555061066c565b601f19841661061a866103ec565b60005b828110156106425784890151825560018201915060208501945060208101905061061d565b8683101561065f578489015161065b601f891682610568565b8355505b6001600288020188555050505b505050505050565b7f4e487b7100000000000000000000000000000000000000000000000000000000600052601160045260246000fd5b60008160011c9050919050565b6000808291508390505b60018511156106fa578086048111156106d6576106d5610674565b5b60018516156106e55780820291505b80810290506106f3856106a3565b94506106ba565b94509492505050565b60008261071357600190506107cf565b8161072157600090506107cf565b8160018114610737576002811461074157610770565b60019150506107cf565b60ff84111561075357610752610674565b5b8360020a91508482111561076a57610769610674565b5b506107cf565b5060208310610133831016604e8410600b84101617156107a55782820a9050838111156107a05761079f610674565b5b6107cf565b6107b284848460016106b0565b925090508184048111156107c9576107c8610674565b5b81810290505b9392505050565b600060ff82169050919050565b60006107ee82610470565b91506107f9836107d6565b92506108267fffffffffffffffffffffffffffffffffffffffffffffffffffffffffffffffff8484610703565b905092915050565b600061083982610470565b915061084483610470565b925082820261085281610470565b9150828204841483151761086957610868610674565b5b5092915050565b60805161140461088b6000396000610a1901526114046000f3fe608060405234801561001057600080fd5b50600436106100ea5760003560e01c80638da5cb5b1161008c578063a9059cbb11610066578063a9059cbb14610251578063dd336c1214610281578063dd62ed3e146102b1578063f76f8d78146102e1576100ea565b80638da5cb5b146101f757806395d89b4114610215578063a3f4df7e14610233576100ea565b806323b872dd116100c857806323b872dd1461015b5780632e0f26251461018b578063313ce567146101a957806370a08231146101c7576100ea565b806306fdde03146100ef578063095ea7b31461010d57806318160ddd1461013d575b600080fd5b6100f76102ff565b6040516101049190610f34565b60405180910390f35b61012760048036038101906101229190610fef565b610391565b604051610134919061104a565b60405180910390f35b610145610504565b6040516101529190611074565b60405180910390f35b6101756004803603810190610170919061108f565b61050e565b604051610182919061104a565b60405180910390f35b6101936109a1565b6040516101a091906110fe565b60405180910390f35b6101b16109b4565b6040516101be9190611074565b60405180910390f35b6101e160048036038101906101dc9190611119565b6109ce565b6040516101ee9190611074565b60405180910390f35b6101ff610a17565b60405161020c9190611155565b60405180910390f35b61021d610a3b565b60405161022a9190610f34565b60405180910390f35b61023b610acd565b6040516102489190610f34565b60405180910390f35b61026b60048036038101906102669190610fef565b610b5b565b604051610278919061104a565b60405180910390f35b61029b60048036038101906102969190611170565b610d6a565b6040516102a89190611074565b60405180910390f35b6102cb60048036038101906102c69190611170565b610d8f565b6040516102d89190611074565b60405180910390f35b6102e9610e16565b6040516102f69190610f34565b60405180910390f35b60606000805461030e906111df565b80601f016020809104026020016040519081016040528092919081815260200182805461033a906111df565b80156103875780601f1061035c57610100808354040283529160200191610387565b820191906000526020600020905b81548152906001019060200180831161036a57829003601f168201915b5050505050905090565b600080600560003373ffffffffffffffffffffffffffffffffffffffff1673ffffffffffffffffffffffffffffffffffffffff16815260200190815260200160002060008573ffffffffffffffffffffffffffffffffffffffff1673ffffffffffffffffffffffffffffffffffffffff1681526020019081526020016000208190555081600560003373ffffffffffffffffffffffffffffffffffffffff1673ffffffffffffffffffffffffffffffffffffffff16815260200190815260200160002060008573ffffffffffffffffffffffffffffffffffffffff1673ffffffffffffffffffffffffffffffffffffffff168152602001908152602001600020819055508273ffffffffffffffffffffffffffffffffffffffff163373ffffffffffffffffffffffffffffffffffffffff167f8c5be1e5ebec7d5bd14f71427d1e84f3dd0314c0f7b2291e5b200ac8c7c3b925846040516104f29190611074565b60405180910390a36001905092915050565b6000600354905090565b600080600560008673ffffffffffffffffffffffffffffffffffffffff1673ffffffffffffffffffffffffffffffffffffffff16815260200190815260200160002060003373ffffffffffffffffffffffffffffffffffffffff1673ffffffffffffffffffffffffffffffffffffffff16815260200190815260200160002054036105ce576040517f457291170000000000000000000000000000000000000000000000000000000081526004016105c590611282565b60405180910390fd5b81600560008673ffffffffffffffffffffffffffffffffffffffff1673ffffffffffffffffffffffffffffffffffffffff16815260200190815260200160002060003373ffffffffffffffffffffffffffffffffffffffff1673ffffffffffffffffffffffffffffffffffffffff16815260200190815260200160002054101561070d57600560008573ffffffffffffffffffffffffffffffffffffffff1673ffffffffffffffffffffffffffffffffffffffff16815260200190815260200160002060008473ffffffffffffffffffffffffffffffffffffffff1673ffffffffffffffffffffffffffffffffffffffff16815260200190815260200160002054826040517f89fe1d920000000000000000000000000000000000000000000000000000000081526004016107049291906112a2565b60405180910390fd5b81600460008673ffffffffffffffffffffffffffffffffffffffff1673ffffffffffffffffffffffffffffffffffffffff1681526020019081526020016000205461075891906112fa565b600460008673ffffffffffffffffffffffffffffffffffffffff1673ffffffffffffffffffffffffffffffffffffffff1681526020019081526020016000208190555081600460008573ffffffffffffffffffffffffffffffffffffffff1673ffffffffffffffffffffffffffffffffffffffff168152602001908152602001600020546107e6919061132e565b600460008573ffffffffffffffffffffffffffffffffffffffff1673ffffffffffffffffffffffffffffffffffffffff1681526020019081526020016000208190555081600560008673ffffffffffffffffffffffffffffffffffffffff1673ffffffffffffffffffffffffffffffffffffffff16815260200190815260200160002060003373ffffffffffffffffffffffffffffffffffffffff1673ffffffffffffffffffffffffffffffffffffffff168152602001908152602001600020546108b191906112fa565b600560008673ffffffffffffffffffffffffffffffffffffffff1673ffffffffffffffffffffffffffffffffffffffff16815260200190815260200160002060003373ffffffffffffffffffffffffffffffffffffffff1673ffffffffffffffffffffffffffffffffffffffff168152602001908152602001600020819055508273ffffffffffffffffffffffffffffffffffffffff168473ffffffffffffffffffffffffffffffffffffffff167fddf252ad1be2c89b69c2b068fc378daa952ba7f163c4a11628f55a4df523b3ef8460405161098e9190611074565b60405180910390a3600190509392505050565b600260009054906101000a900460ff1681565b6000600260009054906101000a900460ff1660ff16905090565b6000600460008373ffffffffffffffffffffffffffffffffffffffff1673ffffffffffffffffffffffffffffffffffffffff168152602001908152602001600020549050919050565b7f000000000000000000000000000000000000000000000000000000000000000081565b606060018054610a4a906111df565b80601f0160208091040260200160405190810160405280929190818152602001828054610a76906111df565b8015610ac35780601f10610a9857610100808354040283529160200191610ac3565b820191906000526020600020905b815481529060010190602001808311610aa657829003601f168201915b5050505050905090565b60008054610ada906111df565b80601f0160208091040260200160405190810160405280929190818152602001828054610b06906111df565b8015610b535780601f10610b2857610100808354040283529160200191610b53565b820191906000526020600020905b815481529060010190602001808311610b3657829003601f168201915b505050505081565b600081600460003373ffffffffffffffffffffffffffffffffffffffff1673ffffffffffffffffffffffffffffffffffffffff168152602001908152602001600020541015610bdf576040517f7979dc87000000000000000000000000000000000000000000000000000000008152600401610bd6906113ae565b60405180910390fd5b81600460003373ffffffffffffffffffffffffffffffffffffffff1673ffffffffffffffffffffffffffffffffffffffff16815260200190815260200160002054610c2a91906112fa565b600460003373ffffffffffffffffffffffffffffffffffffffff1673ffffffffffffffffffffffffffffffffffffffff1681526020019081526020016000208190555081600460008573ffffffffffffffffffffffffffffffffffffffff1673ffffffffffffffffffffffffffffffffffffffff16815260200190815260200160002054610cb8919061132e565b600460008573ffffffffffffffffffffffffffffffffffffffff1673ffffffffffffffffffffffffffffffffffffffff168152602001908152602001600020819055508273ffffffffffffffffffffffffffffffffffffffff163373ffffffffffffffffffffffffffffffffffffffff167fddf252ad1be2c89b69c2b068fc378daa952ba7f163c4a11628f55a4df523b3ef84604051610d589190611074565b60405180910390a36001905092915050565b6005602052816000526040600020602052806000526040600020600091509150505481565b6000600560008473ffffffffffffffffffffffffffffffffffffffff1673ffffffffffffffffffffffffffffffffffffffff16815260200190815260200160002060008373ffffffffffffffffffffffffffffffffffffffff1673ffffffffffffffffffffffffffffffffffffffff16815260200190815260200160002054905092915050565b60018054610e23906111df565b80601f0160208091040260200160405190810160405280929190818152602001828054610e4f906111df565b8015610e9c5780601f10610e7157610100808354040283529160200191610e9c565b820191906000526020600020905b815481529060010190602001808311610e7f57829003601f168201915b505050505081565b600081519050919050565b600082825260208201905092915050565b60005b83811015610ede578082015181840152602081019050610ec3565b60008484015250505050565b6000601f19601f8301169050919050565b6000610f0682610ea4565b610f108185610eaf565b9350610f20818560208601610ec0565b610f2981610eea565b840191505092915050565b60006020820190508181036000830152610f4e8184610efb565b905092915050565b600080fd5b600073ffffffffffffffffffffffffffffffffffffffff82169050919050565b6000610f8682610f5b565b9050919050565b610f9681610f7b565b8114610fa157600080fd5b50565b600081359050610fb381610f8d565b92915050565b6000819050919050565b610fcc81610fb9565b8114610fd757600080fd5b50565b600081359050610fe981610fc3565b92915050565b6000806040838503121561100657611005610f56565b5b600061101485828601610fa4565b925050602061102585828601610fda565b9150509250929050565b60008115159050919050565b6110448161102f565b82525050565b600060208201905061105f600083018461103b565b92915050565b61106e81610fb9565b82525050565b60006020820190506110896000830184611065565b92915050565b6000806000606084860312156110a8576110a7610f56565b5b60006110b686828701610fa4565b93505060206110c786828701610fa4565b92505060406110d886828701610fda565b9150509250925092565b600060ff82169050919050565b6110f8816110e2565b82525050565b600060208201905061111360008301846110ef565b92915050565b60006020828403121561112f5761112e610f56565b5b600061113d84828501610fa4565b91505092915050565b61114f81610f7b565b82525050565b600060208201905061116a6000830184611146565b92915050565b6000806040838503121561118757611186610f56565b5b600061119585828601610fa4565b92505060206111a685828601610fa4565b9150509250929050565b7f4e487b7100000000000000000000000000000000000000000000000000000000600052602260045260246000fd5b600060028204905060018216806111f757607f821691505b60208210810361120a576112096111b0565b5b50919050565b7f756e617574686f726973656420746f2073656e642066726f6d2074686973206160008201527f6464726573730000000000000000000000000000000000000000000000000000602082015250565b600061126c602683610eaf565b915061127782611210565b604082019050919050565b6000602082019050818103600083015261129b8161125f565b9050919050565b60006040820190506112b76000830185611065565b6112c46020830184611065565b9392505050565b7f4e487b7100000000000000000000000000000000000000000000000000000000600052601160045260246000fd5b600061130582610fb9565b915061131083610fb9565b9250828203905081811115611328576113276112cb565b5b92915050565b600061133982610fb9565b915061134483610fb9565b925082820190508082111561135c5761135b6112cb565b5b92915050565b7f496e73756666696369656e742042616c616e6365000000000000000000000000600082015250565b6000611398601483610eaf565b91506113a382611362565b602082019050919050565b600060208201905081810360008301526113c78161138b565b905091905056fea2646970667358221220d6be1f7c23eb30cede4dc21176059795731e2f4507d99c9ed3a498098b4266d264736f6c634300081c0033a2646970667358221220bf94b9559ee258b295125aace738384c86e7dba2f360340e32424ce1f1e7a85c64736f6c634300081c0033",
  "linkReferences": {},
  "deployedLinkReferences": {}
}