{
  "_format": "hh-sol-artifact-1",
  "contractName": "AccessControl",
  "sourceName": "contracts/accessControl.sol",
  "abi": [
    {
      "inputs": [],
      "stateMutability": "nonpayable",
      "type": "constructor"
    },
    {
      "inputs": [],
      "name": "EMPLOYEE_NOT_FOUND",
      "type": "error"
    },
    {
      "inputs": [
        {
          "internalType": "address",
          "name": "_addr",
          "type": "address"
        },
        {
          "internalType": "string",
          "name": "_name",
          "type": "string"
        },
        {
          "internalType": "enum AccessControl.Role",
          "name": "_role",
          "type": "uint8"
        }
      ],
      "name": "addEmployee",
      "outputs": [],
      "stateMutability": "nonpayable",
      "type": "function"
    },
    {
      "inputs": [
        {
          "internalType": "address",
          "name": "_addr",
          "type": "address"
        }
      ],
      "name": "checkAccess",
      "outputs": [
        {
          "internalType": "bool",
          "name": "",
          "type": "bool"
        }
      ],
      "stateMutability": "view",
      "type": "function"
    },
    {
      "inputs": [
        {
          "internalType": "uint256",
          "name": "",
          "type": "uint256"
        }
      ],
      "name": "employees",
      "outputs": [
        {
          "internalType": "address",
          "name": "addr",
          "type": "address"
        },
        {
          "internalType": "string",
          "name": "name",
          "type": "string"
        },
        {
          "internalType": "enum AccessControl.Role",
          "name": "role",
          "type": "uint8"
        },
        {
          "internalType": "bool",
          "name": "active",
          "type": "bool"
        }
      ],
      "stateMutability": "view",
      "type": "function"
    },
    {
      "inputs": [],
      "name": "getAllEmployees",
      "outputs": [
        {
          "components": [
            {
              "internalType": "address",
              "name": "addr",
              "type": "address"
            },
            {
              "internalType": "string",
              "name": "name",
              "type": "string"
            },
            {
              "internalType": "enum AccessControl.Role",
              "name": "role",
              "type": "uint8"
            },
            {
              "internalType": "bool",
              "name": "active",
              "type": "bool"
            }
          ],
          "internalType": "struct AccessControl.Employee[]",
          "name": "",
          "type": "tuple[]"
        }
      ],
      "stateMutability": "view",
      "type": "function"
    },
    {
      "inputs": [
        {
          "internalType": "address",
          "name": "_addr",
          "type": "address"
        }
      ],
      "name": "getEmployee",
      "outputs": [
        {
          "components": [
            {
              "internalType": "address",
              "name": "addr",
              "type": "address"
            },
            {
              "internalType": "string",
              "name": "name",
              "type": "string"
            },
            {
              "internalType": "enum AccessControl.Role",
              "name": "role",
              "type": "uint8"
            },
            {
              "internalType": "bool",
              "name": "active",
              "type": "bool"
            }
          ],
          "internalType": "struct AccessControl.Employee",
          "name": "",
          "type": "tuple"
        }
      ],
      "stateMutability": "view",
      "type": "function"
    },
    {
      "inputs": [
        {
          "internalType": "enum AccessControl.Role",
          "name": "",
          "type": "uint8"
        }
      ],
      "name": "roleAccess",
      "outputs": [
        {
          "internalType": "bool",
          "name": "",
          "type": "bool"
        }
      ],
      "stateMutability": "view",
      "type": "function"
    },
    {
      "inputs": [
        {
          "internalType": "address",
          "name": "_addr",
          "type": "address"
        },
        {
          "internalType": "string",
          "name": "_name",
          "type": "string"
        },
        {
          "internalType": "enum AccessControl.Role",
          "name": "_role",
          "type": "uint8"
        },
        {
          "internalType": "bool",
          "name": "_active",
          "type": "bool"
        }
      ],
      "name": "updateEmployee",
      "outputs": [],
      "stateMutability": "nonpayable",
      "type": "function"
    }
  ],
  "bytecode": "0x608060405234801561001057600080fd5b5060016002600080600581111561002a57610029610108565b5b600581111561003c5761003b610108565b5b815260200190815260200160002060006101000a81548160ff0219169083151502179055506001600260006001600581111561007b5761007a610108565b5b600581111561008d5761008c610108565b5b815260200190815260200160002060006101000a81548160ff021916908315150217905550600160026000600260058111156100cc576100cb610108565b5b60058111156100de576100dd610108565b5b815260200190815260200160002060006101000a81548160ff021916908315150217905550610137565b7f4e487b7100000000000000000000000000000000000000000000000000000000600052602160045260246000fd5b6119e1806101466000396000f3fe608060405234801561001057600080fd5b506004361061007d5760003560e01c80634739326b1161005b5780634739326b146100fe5780636d6c20f814610131578063e3366fed14610161578063fb088a281461017f5761007d565b806332648e091461008257806335b79557146100b2578063466a0146146100ce575b600080fd5b61009c60048036038101906100979190610f22565b61019b565b6040516100a991906110e3565b60405180910390f35b6100cc60048036038101906100c7919061128b565b610331565b005b6100e860048036038101906100e39190610f22565b61078f565b6040516100f5919061131d565b60405180910390f35b6101186004803603810190610113919061136e565b61097f565b6040516101289493929190611403565b60405180910390f35b61014b6004803603810190610146919061144f565b610a81565b604051610158919061131d565b60405180910390f35b610169610aa1565b60405161017691906115a1565b60405180910390f35b610199600480360381019061019491906115c3565b610c3e565b005b6101a3610e5e565b6000808373ffffffffffffffffffffffffffffffffffffffff1673ffffffffffffffffffffffffffffffffffffffff1681526020019081526020016000206040518060800160405290816000820160009054906101000a900473ffffffffffffffffffffffffffffffffffffffff1673ffffffffffffffffffffffffffffffffffffffff1673ffffffffffffffffffffffffffffffffffffffff16815260200160018201805461025290611661565b80601f016020809104026020016040519081016040528092919081815260200182805461027e90611661565b80156102cb5780601f106102a0576101008083540402835291602001916102cb565b820191906000526020600020905b8154815290600101906020018083116102ae57829003601f168201915b505050505081526020016002820160009054906101000a900460ff1660058111156102f9576102f8610fee565b5b600581111561030b5761030a610fee565b5b81526020016002820160019054906101000a900460ff1615151515815250509050919050565b60008060008673ffffffffffffffffffffffffffffffffffffffff1673ffffffffffffffffffffffffffffffffffffffff1681526020019081526020016000206040518060800160405290816000820160009054906101000a900473ffffffffffffffffffffffffffffffffffffffff1673ffffffffffffffffffffffffffffffffffffffff1673ffffffffffffffffffffffffffffffffffffffff1681526020016001820180546103e290611661565b80601f016020809104026020016040519081016040528092919081815260200182805461040e90611661565b801561045b5780601f106104305761010080835404028352916020019161045b565b820191906000526020600020905b81548152906001019060200180831161043e57829003601f168201915b505050505081526020016002820160009054906101000a900460ff16600581111561048957610488610fee565b5b600581111561049b5761049a610fee565b5b81526020016002820160019054906101000a900460ff161515151581525050905083816020018190525082816040019060058111156104dd576104dc610fee565b5b908160058111156104f1576104f0610fee565b5b8152505081816060019015159081151581525050806000808773ffffffffffffffffffffffffffffffffffffffff1673ffffffffffffffffffffffffffffffffffffffff16815260200190815260200160002060008201518160000160006101000a81548173ffffffffffffffffffffffffffffffffffffffff021916908373ffffffffffffffffffffffffffffffffffffffff16021790555060208201518160010190816105a0919061183e565b5060408201518160020160006101000a81548160ff021916908360058111156105cc576105cb610fee565b5b021790555060608201518160020160016101000a81548160ff02191690831515021790555090505060005b60018054905081101561074d578573ffffffffffffffffffffffffffffffffffffffff166001828154811061062f5761062e611910565b5b906000526020600020906003020160000160009054906101000a900473ffffffffffffffffffffffffffffffffffffffff1673ffffffffffffffffffffffffffffffffffffffff160361074057846001828154811061069157610690611910565b5b906000526020600020906003020160010190816106ae919061183e565b5083600182815481106106c4576106c3611910565b5b906000526020600020906003020160020160006101000a81548160ff021916908360058111156106f7576106f6610fee565b5b0217905550826001828154811061071157610710611910565b5b906000526020600020906003020160020160016101000a81548160ff0219169083151502179055505050610789565b80806001019150506105f7565b506040517f08c379a00000000000000000000000000000000000000000000000000000000081526004016107809061198b565b60405180910390fd5b50505050565b6000806000808473ffffffffffffffffffffffffffffffffffffffff1673ffffffffffffffffffffffffffffffffffffffff1681526020019081526020016000206040518060800160405290816000820160009054906101000a900473ffffffffffffffffffffffffffffffffffffffff1673ffffffffffffffffffffffffffffffffffffffff1673ffffffffffffffffffffffffffffffffffffffff16815260200160018201805461084190611661565b80601f016020809104026020016040519081016040528092919081815260200182805461086d90611661565b80156108ba5780601f1061088f576101008083540402835291602001916108ba565b820191906000526020600020905b81548152906001019060200180831161089d57829003601f168201915b505050505081526020016002820160009054906101000a900460ff1660058111156108e8576108e7610fee565b5b60058111156108fa576108f9610fee565b5b81526020016002820160019054906101000a900460ff16151515158152505090506000816040015190506002600082600581111561093b5761093a610fee565b5b600581111561094d5761094c610fee565b5b815260200190815260200160002060009054906101000a900460ff168015610976575081606001515b92505050919050565b6001818154811061098f57600080fd5b90600052602060002090600302016000915090508060000160009054906101000a900473ffffffffffffffffffffffffffffffffffffffff16908060010180546109d890611661565b80601f0160208091040260200160405190810160405280929190818152602001828054610a0490611661565b8015610a515780601f10610a2657610100808354040283529160200191610a51565b820191906000526020600020905b815481529060010190602001808311610a3457829003601f168201915b5050505050908060020160009054906101000a900460ff16908060020160019054906101000a900460ff16905084565b60026020528060005260406000206000915054906101000a900460ff1681565b60606001805480602002602001604051908101604052809291908181526020016000905b82821015610c3557838290600052602060002090600302016040518060800160405290816000820160009054906101000a900473ffffffffffffffffffffffffffffffffffffffff1673ffffffffffffffffffffffffffffffffffffffff1673ffffffffffffffffffffffffffffffffffffffff168152602001600182018054610b4e90611661565b80601f0160208091040260200160405190810160405280929190818152602001828054610b7a90611661565b8015610bc75780601f10610b9c57610100808354040283529160200191610bc7565b820191906000526020600020905b815481529060010190602001808311610baa57829003601f168201915b505050505081526020016002820160009054906101000a900460ff166005811115610bf557610bf4610fee565b5b6005811115610c0757610c06610fee565b5b81526020016002820160019054906101000a900460ff16151515158152505081526020019060010190610ac5565b50505050905090565b600060405180608001604052808573ffffffffffffffffffffffffffffffffffffffff168152602001848152602001836005811115610c8057610c7f610fee565b5b8152602001600115158152509050806000808673ffffffffffffffffffffffffffffffffffffffff1673ffffffffffffffffffffffffffffffffffffffff16815260200190815260200160002060008201518160000160006101000a81548173ffffffffffffffffffffffffffffffffffffffff021916908373ffffffffffffffffffffffffffffffffffffffff1602179055506020820151816001019081610d29919061183e565b5060408201518160020160006101000a81548160ff02191690836005811115610d5557610d54610fee565b5b021790555060608201518160020160016101000a81548160ff021916908315150217905550905050600181908060018154018082558091505060019003906000526020600020906003020160009091909190915060008201518160000160006101000a81548173ffffffffffffffffffffffffffffffffffffffff021916908373ffffffffffffffffffffffffffffffffffffffff1602179055506020820151816001019081610e05919061183e565b5060408201518160020160006101000a81548160ff02191690836005811115610e3157610e30610fee565b5b021790555060608201518160020160016101000a81548160ff021916908315150217905550505050505050565b6040518060800160405280600073ffffffffffffffffffffffffffffffffffffffff1681526020016060815260200160006005811115610ea157610ea0610fee565b5b81526020016000151581525090565b6000604051905090565b600080fd5b600080fd5b600073ffffffffffffffffffffffffffffffffffffffff82169050919050565b6000610eef82610ec4565b9050919050565b610eff81610ee4565b8114610f0a57600080fd5b50565b600081359050610f1c81610ef6565b92915050565b600060208284031215610f3857610f37610eba565b5b6000610f4684828501610f0d565b91505092915050565b610f5881610ee4565b82525050565b600081519050919050565b600082825260208201905092915050565b60005b83811015610f98578082015181840152602081019050610f7d565b60008484015250505050565b6000601f19601f8301169050919050565b6000610fc082610f5e565b610fca8185610f69565b9350610fda818560208601610f7a565b610fe381610fa4565b840191505092915050565b7f4e487b7100000000000000000000000000000000000000000000000000000000600052602160045260246000fd5b6006811061102e5761102d610fee565b5b50565b600081905061103f8261101d565b919050565b600061104f82611031565b9050919050565b61105f81611044565b82525050565b60008115159050919050565b61107a81611065565b82525050565b60006080830160008301516110986000860182610f4f565b50602083015184820360208601526110b08282610fb5565b91505060408301516110c56040860182611056565b5060608301516110d86060860182611071565b508091505092915050565b600060208201905081810360008301526110fd8184611080565b905092915050565b600080fd5b600080fd5b7f4e487b7100000000000000000000000000000000000000000000000000000000600052604160045260246000fd5b61114782610fa4565b810181811067ffffffffffffffff821117156111665761116561110f565b5b80604052505050565b6000611179610eb0565b9050611185828261113e565b919050565b600067ffffffffffffffff8211156111a5576111a461110f565b5b6111ae82610fa4565b9050602081019050919050565b82818337600083830152505050565b60006111dd6111d88461118a565b61116f565b9050828152602081018484840111156111f9576111f861110a565b5b6112048482856111bb565b509392505050565b600082601f83011261122157611220611105565b5b81356112318482602086016111ca565b91505092915050565b6006811061124757600080fd5b50565b6000813590506112598161123a565b92915050565b61126881611065565b811461127357600080fd5b50565b6000813590506112858161125f565b92915050565b600080600080608085870312156112a5576112a4610eba565b5b60006112b387828801610f0d565b945050602085013567ffffffffffffffff8111156112d4576112d3610ebf565b5b6112e08782880161120c565b93505060406112f18782880161124a565b925050606061130287828801611276565b91505092959194509250565b61131781611065565b82525050565b6000602082019050611332600083018461130e565b92915050565b6000819050919050565b61134b81611338565b811461135657600080fd5b50565b60008135905061136881611342565b92915050565b60006020828403121561138457611383610eba565b5b600061139284828501611359565b91505092915050565b6113a481610ee4565b82525050565b600082825260208201905092915050565b60006113c682610f5e565b6113d081856113aa565b93506113e0818560208601610f7a565b6113e981610fa4565b840191505092915050565b6113fd81611044565b82525050565b6000608082019050611418600083018761139b565b818103602083015261142a81866113bb565b905061143960408301856113f4565b611446606083018461130e565b95945050505050565b60006020828403121561146557611464610eba565b5b60006114738482850161124a565b91505092915050565b600081519050919050565b600082825260208201905092915050565b6000819050602082019050919050565b60006080830160008301516114c06000860182610f4f565b50602083015184820360208601526114d88282610fb5565b91505060408301516114ed6040860182611056565b5060608301516115006060860182611071565b508091505092915050565b600061151783836114a8565b905092915050565b6000602082019050919050565b60006115378261147c565b6115418185611487565b93508360208202850161155385611498565b8060005b8581101561158f5784840389528151611570858261150b565b945061157b8361151f565b925060208a01995050600181019050611557565b50829750879550505050505092915050565b600060208201905081810360008301526115bb818461152c565b905092915050565b6000806000606084860312156115dc576115db610eba565b5b60006115ea86828701610f0d565b935050602084013567ffffffffffffffff81111561160b5761160a610ebf565b5b6116178682870161120c565b92505060406116288682870161124a565b9150509250925092565b7f4e487b7100000000000000000000000000000000000000000000000000000000600052602260045260246000fd5b6000600282049050600182168061167957607f821691505b60208210810361168c5761168b611632565b5b50919050565b60008190508160005260206000209050919050565b60006020601f8301049050919050565b600082821b905092915050565b6000600883026116f47fffffffffffffffffffffffffffffffffffffffffffffffffffffffffffffffff826116b7565b6116fe86836116b7565b95508019841693508086168417925050509392505050565b6000819050919050565b600061173b61173661173184611338565b611716565b611338565b9050919050565b6000819050919050565b61175583611720565b61176961176182611742565b8484546116c4565b825550505050565b600090565b61177e611771565b61178981848461174c565b505050565b5b818110156117ad576117a2600082611776565b60018101905061178f565b5050565b601f8211156117f2576117c381611692565b6117cc846116a7565b810160208510156117db578190505b6117ef6117e7856116a7565b83018261178e565b50505b505050565b600082821c905092915050565b6000611815600019846008026117f7565b1980831691505092915050565b600061182e8383611804565b9150826002028217905092915050565b61184782610f5e565b67ffffffffffffffff8111156118605761185f61110f565b5b61186a8254611661565b6118758282856117b1565b600060209050601f8311600181146118a85760008415611896578287015190505b6118a08582611822565b865550611908565b601f1984166118b686611692565b60005b828110156118de578489015182556001820191506020850194506020810190506118b9565b868310156118fb57848901516118f7601f891682611804565b8355505b6001600288020188555050505b505050505050565b7f4e487b7100000000000000000000000000000000000000000000000000000000600052603260045260246000fd5b7f454d504c4f5945455f4e4f545f464f554e440000000000000000000000000000600082015250565b60006119756012836113aa565b91506119808261193f565b602082019050919050565b600060208201905081810360008301526119a481611968565b905091905056fea26469706673582212207dc82eddfd6a90e5881015939b04d54526516dd8737963e227ad88236484486564736f6c634300081c0033",
  "linkReferences": {},
  "deployedLinkReferences": {}
}